{"abi":[{"type":"constructor","inputs":[{"name":"_core","type":"address","internalType":"address"}],"stateMutability":"nonpayable"},{"type":"function","name":"checkUpkeep","inputs":[{"name":"checkData","type":"bytes","internalType":"bytes"}],"outputs":[{"name":"upkeepNeeded","type":"bool","internalType":"bool"},{"name":"performData","type":"bytes","internalType":"bytes"}],"stateMutability":"view"},{"type":"function","name":"core","inputs":[],"outputs":[{"name":"","type":"address","internalType":"contract SpeculateCore"}],"stateMutability":"view"},{"type":"function","name":"globalFeeds","inputs":[{"name":"","type":"bytes32","internalType":"bytes32"}],"outputs":[{"name":"","type":"address","internalType":"address"}],"stateMutability":"view"},{"type":"function","name":"owner","inputs":[],"outputs":[{"name":"","type":"address","internalType":"address"}],"stateMutability":"view"},{"type":"function","name":"performUpkeep","inputs":[{"name":"performData","type":"bytes","internalType":"bytes"}],"outputs":[],"stateMutability":"nonpayable"},{"type":"function","name":"registerMarket","inputs":[{"name":"","type":"uint256","internalType":"uint256"},{"name":"","type":"address","internalType":"address"}],"outputs":[],"stateMutability":"pure"},{"type":"function","name":"setGlobalFeed","inputs":[{"name":"feedId","type":"bytes32","internalType":"bytes32"},{"name":"feedAddress","type":"address","internalType":"address"}],"outputs":[],"stateMutability":"nonpayable"},{"type":"event","name":"FeedRegistered","inputs":[{"name":"feedId","type":"bytes32","indexed":true,"internalType":"bytes32"},{"name":"feedAddress","type":"address","indexed":false,"internalType":"address"}],"anonymous":false},{"type":"event","name":"MarketResolved","inputs":[{"name":"marketId","type":"uint256","indexed":true,"internalType":"uint256"},{"name":"yesWins","type":"bool","indexed":false,"internalType":"bool"},{"name":"price","type":"uint256","indexed":false,"internalType":"uint256"}],"anonymous":false}],"bytecode":{"object":"0x60a0346100c157601f610b9938819003918201601f19168301916001600160401b038311848410176100c5578084926020946040528339810103126100c157516001600160a01b038116908190036100c1578015610090576080525f80546001600160a01b03191633179055604051610abf90816100da823960805181818160820152818161025301526108dc0152f35b60405162461bcd60e51b81526020600482015260096024820152687a65726f20636f726560b81b6044820152606490fd5b5f80fd5b634e487b7160e01b5f52604160045260245ffdfe6080604081815260049182361015610015575f80fd5b5f925f3560e01c91826315d8b4b11461067d5750816326ef8c8a1461064e5781634585e33b146102135781636e04ff0d146101bf57816373330f46146100dc575080638da5cb5b146100b55763f2f4eb261461006f575f80fd5b346100b157816003193601126100b157517f00000000000000000000000000000000000000000000000000000000000000006001600160a01b03168152602090f35b5080fd5b50346100b157816003193601126100b157905490516001600160a01b039091168152602090f35b9050346101bb57816003193601126101bb578035916100f96106d6565b84546001600160a01b0391908216330361018c571691821561015e57508284526001602090815281852080546001600160a01b0319168417905590519182527f895b8e5422c82f2848ee2a4b893b1fdd1c8bc5deaee9d81046c9fdb1b5f1e8b991a280f35b6020606492519162461bcd60e51b835282015260096024820152681e995c9bc81999595960ba1b6044820152fd5b825162461bcd60e51b815260208186015260096024820152683737ba1037bbb732b960b91b6044820152606490fd5b8280fd5b828434610210575060606101db6101d5366106ec565b906108bd565b61020284519485931515845280602085015282519283809286015260208686019101610736565b601f01601f19168101030190f35b80fd5b9190503461046857610224366106ec565b90809291602093849181010312610468578151637be99a5d60e11b815290358482018190526001600160a01b037f0000000000000000000000000000000000000000000000000000000000000000811695919492602491905f8184818b5afa908115610644575f91610621575b50156105ec5784519663232e45d760e01b9182895287858a01526101009889818681865afa90811561045e575f916105cf575b508681015160028110156105bd5760010361058b5760608101515f5260018752818881815f20541692831561057e575b505050168015610546579060a085949392885196878092633fabe5a360e21b82525afa94851561053c575f955f965f925f926104e7575b505f8813156104b557821561047e576103559169ffffffffffffffffffff91821691161015610a50565b420342811161046c57610e1061036b9110610a50565b803b1561046857865163cab7cde960e01b8152888582015285848201525f8160448183865af1801561045e57610430575b509187939189938851958694859384528301525afa958615610426579560c0917f6d4d544f5a6dcf38d77a232d3ef7358625c74877a1ad954fcb507872e7a05eaf969789926103f9575b505001511515918351928352820152a280f35b6104189250803d1061041f575b6104108183610757565b810190610815565b5f806103e6565b503d610406565b84513d89823e3d90fd5b90995067ffffffffffffffff811161044c5786525f988761039c565b82604185634e487b7160e01b5f52525ffd5b88513d5f823e3d90fd5b5f80fd5b83601186634e487b7160e01b5f52525ffd5b895162461bcd60e51b81528088018a905260128188015271726f756e64206e6f7420636f6d706c65746560701b6044820152606490fd5b895162461bcd60e51b81528088018a9052600d818801526c696e76616c696420707269636560981b6044820152606490fd5b975050505060a0853d60a011610534575b8161050560a09383610757565b810103126104685761051685610a39565b8686015161052b608060608901519801610a39565b9096915f61032b565b3d91506104f8565b87513d5f823e3d90fd5b865162461bcd60e51b81528086018790526013818601527219995959081b9bdd081c9959da5cdd195c9959606a1b6044820152606490fd5b015116905081885f6102f4565b875162461bcd60e51b8152808701889052600d818701526c6e6f7420636861696e6c696e6b60981b6044820152606490fd5b85602188634e487b7160e01b5f52525ffd5b6105e691508a3d8c1161041f576104108183610757565b5f6102c4565b5060119192606494519362461bcd60e51b8552840152820152701d5c1ad9595c081b9bdd081b9959591959607a1b6044820152fd5b61063d91503d805f833e6106358183610757565b81019061079a565b505f610291565b86513d5f823e3d90fd5b823461046857602036600319011261046857602091355f526001825260018060a01b03815f2054169051908152f35b83346104685736600319011261046857602060649261069a6106d6565b5062461bcd60e51b8352820152601960248201527f72656769737465724d61726b65742064657072656361746564000000000000006044820152fd5b602435906001600160a01b038216820361046857565b9060206003198301126104685760043567ffffffffffffffff9283821161046857806023830112156104685781600401359384116104685760248483010111610468576024019190565b5f5b8381106107475750505f910152565b8181015183820152602001610738565b90601f8019910116810190811067ffffffffffffffff82111761077957604052565b634e487b7160e01b5f52604160045260245ffd5b5190811515820361046857565b9190604083820312610468576107af8361078d565b92602081015167ffffffffffffffff9182821161046857019082601f8301121561046857815190811161077957604051926107f4601f8301601f191660200185610757565b81845260208284010111610468576108129160208085019101610736565b90565b809161010092839103126104685760405191820182811067ffffffffffffffff82111761077957604052805182526020810151600281101561046857602083015260408101516001600160a01b0381168103610468576040830152606081015160608301526080810151608083015260a08101516003811015610468576108b59160e09160a08501526108aa60c0820161078d565b60c08501520161078d565b60e082015290565b60019180610a22575b50506040805163764bc84160e11b8152909290917f00000000000000000000000000000000000000000000000000000000000000006001600160a01b0316906004906020858381865afa948515610644575f956109ee575b5060328101948582116109da578086116109c5575b505b8481106109655750505090505f91805190602082019082821067ffffffffffffffff83111761077957525f815290565b8551637be99a5d60e11b81528281018290525f81602481875afa90811561053c575f905f926109a8575b5061099d5750600101610935565b600196509450505050565b90506109be91503d805f833e6106358183610757565b905f61098f565b909450600181018091116109da57935f610933565b634e487b7160e01b5f52601160045260245ffd5b9094506020813d602011610a1a575b81610a0a60209383610757565b810103126104685751935f61091e565b3d91506109fd565b819250906020918101031261046857355f806108c6565b519069ffffffffffffffffffff8216820361046857565b15610a5757565b60405162461bcd60e51b815260206004820152600a6024820152697374616c65206461746160b01b6044820152606490fdfea264697066735822122080d72f28458789dfe4a8a83899577606844ef6c06714cae6458b6c3934bb3e8664736f6c63430008180033","linkReferences":{}},"methodIdentifiers":{"checkUpkeep(bytes)":"6e04ff0d","core()":"f2f4eb26","globalFeeds(bytes32)":"26ef8c8a","owner()":"8da5cb5b","performUpkeep(bytes)":"4585e33b","registerMarket(uint256,address)":"15d8b4b1","setGlobalFeed(bytes32,address)":"73330f46"},"id":40}