{"abi":[{"type":"constructor","inputs":[],"stateMutability":"nonpayable"},{"type":"function","name":"addMinter","inputs":[{"name":"minter","type":"address","internalType":"address"}],"outputs":[],"stateMutability":"nonpayable"},{"type":"function","name":"allowance","inputs":[{"name":"owner","type":"address","internalType":"address"},{"name":"spender","type":"address","internalType":"address"}],"outputs":[{"name":"","type":"uint256","internalType":"uint256"}],"stateMutability":"view"},{"type":"function","name":"approve","inputs":[{"name":"spender","type":"address","internalType":"address"},{"name":"value","type":"uint256","internalType":"uint256"}],"outputs":[{"name":"","type":"bool","internalType":"bool"}],"stateMutability":"nonpayable"},{"type":"function","name":"balanceOf","inputs":[{"name":"account","type":"address","internalType":"address"}],"outputs":[{"name":"","type":"uint256","internalType":"uint256"}],"stateMutability":"view"},{"type":"function","name":"burn","inputs":[{"name":"from","type":"address","internalType":"address"},{"name":"amount","type":"uint256","internalType":"uint256"}],"outputs":[],"stateMutability":"nonpayable"},{"type":"function","name":"decimals","inputs":[],"outputs":[{"name":"","type":"uint8","internalType":"uint8"}],"stateMutability":"pure"},{"type":"function","name":"directCore","inputs":[],"outputs":[{"name":"","type":"address","internalType":"address"}],"stateMutability":"view"},{"type":"function","name":"mint","inputs":[{"name":"to","type":"address","internalType":"address"},{"name":"amount","type":"uint256","internalType":"uint256"}],"outputs":[],"stateMutability":"nonpayable"},{"type":"function","name":"minters","inputs":[{"name":"","type":"address","internalType":"address"}],"outputs":[{"name":"","type":"bool","internalType":"bool"}],"stateMutability":"view"},{"type":"function","name":"name","inputs":[],"outputs":[{"name":"","type":"string","internalType":"string"}],"stateMutability":"view"},{"type":"function","name":"owner","inputs":[],"outputs":[{"name":"","type":"address","internalType":"address"}],"stateMutability":"view"},{"type":"function","name":"removeMinter","inputs":[{"name":"minter","type":"address","internalType":"address"}],"outputs":[],"stateMutability":"nonpayable"},{"type":"function","name":"renounceOwnership","inputs":[],"outputs":[],"stateMutability":"nonpayable"},{"type":"function","name":"setDirectCore","inputs":[{"name":"_directCore","type":"address","internalType":"address"}],"outputs":[],"stateMutability":"nonpayable"},{"type":"function","name":"setSpeculateCore","inputs":[{"name":"_speculateCore","type":"address","internalType":"address"}],"outputs":[],"stateMutability":"nonpayable"},{"type":"function","name":"speculateCore","inputs":[],"outputs":[{"name":"","type":"address","internalType":"address"}],"stateMutability":"view"},{"type":"function","name":"symbol","inputs":[],"outputs":[{"name":"","type":"string","internalType":"string"}],"stateMutability":"view"},{"type":"function","name":"totalSupply","inputs":[],"outputs":[{"name":"","type":"uint256","internalType":"uint256"}],"stateMutability":"view"},{"type":"function","name":"transfer","inputs":[{"name":"to","type":"address","internalType":"address"},{"name":"value","type":"uint256","internalType":"uint256"}],"outputs":[{"name":"","type":"bool","internalType":"bool"}],"stateMutability":"nonpayable"},{"type":"function","name":"transferFrom","inputs":[{"name":"from","type":"address","internalType":"address"},{"name":"to","type":"address","internalType":"address"},{"name":"value","type":"uint256","internalType":"uint256"}],"outputs":[{"name":"","type":"bool","internalType":"bool"}],"stateMutability":"nonpayable"},{"type":"function","name":"transferOwnership","inputs":[{"name":"newOwner","type":"address","internalType":"address"}],"outputs":[],"stateMutability":"nonpayable"},{"type":"event","name":"Approval","inputs":[{"name":"owner","type":"address","indexed":true,"internalType":"address"},{"name":"spender","type":"address","indexed":true,"internalType":"address"},{"name":"value","type":"uint256","indexed":false,"internalType":"uint256"}],"anonymous":false},{"type":"event","name":"MinterAdded","inputs":[{"name":"minter","type":"address","indexed":true,"internalType":"address"}],"anonymous":false},{"type":"event","name":"MinterRemoved","inputs":[{"name":"minter","type":"address","indexed":true,"internalType":"address"}],"anonymous":false},{"type":"event","name":"OwnershipTransferred","inputs":[{"name":"previousOwner","type":"address","indexed":true,"internalType":"address"},{"name":"newOwner","type":"address","indexed":true,"internalType":"address"}],"anonymous":false},{"type":"event","name":"SpeculateCoreSet","inputs":[{"name":"speculateCore","type":"address","indexed":true,"internalType":"address"}],"anonymous":false},{"type":"event","name":"Transfer","inputs":[{"name":"from","type":"address","indexed":true,"internalType":"address"},{"name":"to","type":"address","indexed":true,"internalType":"address"},{"name":"value","type":"uint256","indexed":false,"internalType":"uint256"}],"anonymous":false},{"type":"error","name":"ERC20InsufficientAllowance","inputs":[{"name":"spender","type":"address","internalType":"address"},{"name":"allowance","type":"uint256","internalType":"uint256"},{"name":"needed","type":"uint256","internalType":"uint256"}]},{"type":"error","name":"ERC20InsufficientBalance","inputs":[{"name":"sender","type":"address","internalType":"address"},{"name":"balance","type":"uint256","internalType":"uint256"},{"name":"needed","type":"uint256","internalType":"uint256"}]},{"type":"error","name":"ERC20InvalidApprover","inputs":[{"name":"approver","type":"address","internalType":"address"}]},{"type":"error","name":"ERC20InvalidReceiver","inputs":[{"name":"receiver","type":"address","internalType":"address"}]},{"type":"error","name":"ERC20InvalidSender","inputs":[{"name":"sender","type":"address","internalType":"address"}]},{"type":"error","name":"ERC20InvalidSpender","inputs":[{"name":"spender","type":"address","internalType":"address"}]},{"type":"error","name":"OwnableInvalidOwner","inputs":[{"name":"owner","type":"address","internalType":"address"}]},{"type":"error","name":"OwnableUnauthorizedAccount","inputs":[{"name":"account","type":"address","internalType":"address"}]}],"bytecode":{"object":"0x60803462000375576001600160401b039060408181018381118382101762000281578152600982526020684d6f636b205553444360b81b8184015281518281018181108682111762000281578352600594858252646d5553444360d81b83830152845181811162000281576003908154906001978883811c931680156200036a575b8784101462000356578190601f9384811162000304575b508790848311600114620002a1575f9262000295575b50505f1982851b1c191690881b1782555b8351928311620002815760049384548881811c9116801562000276575b87821014620002635790818386959493116200020e575b5086918411600114620001a7575f936200019b575b505082871b925f19911b1c19161781555b33156200018557508354336001600160a01b031982168117909555825194600692916001600160a01b03167f8be0079c531659141344cd1fd0a4f28419497f9722a3daafe3b4186f6b6457e05f80a3335f52525f209060ff19825416179055610e0e90816200037a8239f35b6024905f845191631e4fbdf760e01b8352820152fd5b015191505f8062000108565b9190889450601f19841692865f52875f20935f5b89828210620001f75750508511620001dd575b50505050811b01815562000119565b01519060f8845f19921b161c191690555f808080620001ce565b8385015187558c98909601959384019301620001bb565b9091929350855f52865f20838087018c1c82019289881062000259575b918b91889796959493018d1c01915b8281106200024a575050620000f3565b5f81558796508b91016200023a565b925081926200022b565b602286634e487b7160e01b5f525260245ffd5b90607f1690620000dc565b634e487b7160e01b5f52604160045260245ffd5b015190505f80620000ae565b908a9350601f19831691865f52895f20925f5b8b828210620002ed5750508411620002d5575b505050811b018255620000bf565b01515f1983871b60f8161c191690555f8080620002c7565b8385015186558e97909501949384019301620002b4565b909150845f52875f20848085018d1c8201928a86106200034c575b918d8d928796959401901c01915b8281106200033d57505062000098565b5f81558594508c91016200032d565b925081926200031f565b634e487b7160e01b5f52602260045260245ffd5b92607f169262000081565b5f80fdfe6080604090808252600480361015610015575f80fd5b5f3560e01c91826306fdde031461093b57508163095ea7b31461089357816318160ddd1461087557816323b872dd146107915781633092afd514610727578163313ce5671461070c57816340c10f191461062557816370a08231146105ef578163715018a6146105a75781638da5cb5b1461057f57816395d89b411461049a578163983b2d561461042d5781639ba479f1146104055781639dc29fac1461030b578163a9059cbb146102db578163ac3bbbc6146102b3578163b5988ebd1461026d578163dc7b666e14610205578163dd62ed3e146101bc578163f2fde38b14610146575063f46eccc414610107575f80fd5b34610142576020366003190112610142576020906001600160a01b0361012b610a56565b165f526006825260ff815f20541690519015158152f35b5f80fd5b90503461014257602036600319011261014257610161610a56565b9061016a610b89565b6001600160a01b039182169283156101a6575050600580546001600160a01b031981168417909155165f80516020610dce8339815191525f80a3005b905f6024925191631e4fbdf760e01b8352820152fd5b82346101425780600319360112610142576020906101d8610a56565b6101e0610a6c565b9060018060a01b038091165f5260018452825f2091165f528252805f20549051908152f35b346101425760203660031901126101425761021e610a56565b610226610b89565b6001600160a01b0316801561014257600880546001600160a01b031916821790557fd85da9d9a1319c6f26c71d1703f6c964a5909e44544492c88b571dd0ea91f3975f80a2005b3461014257602036600319011261014257610286610a56565b61028e610b89565b6001600160a01b0316801561014257600780546001600160a01b031916919091179055005b8234610142575f3660031901126101425760085490516001600160a01b039091168152602090f35b82346101425780600319360112610142576020906103046102fa610a56565b6024359033610ad7565b5160018152f35b8234610142578060031936011261014257610324610a56565b906024359260018060a01b038060055416331480156103f0575b80156103e1575b80156103d2575b156101425783169283156103bc57835f525f602052825f20549185831061039d575f855f80516020610dee8339815191526020898881898688528785520381872055816002540360025551908152a3005b6103b88684865194859463391434e360e21b86528501610ab9565b0390fd5b505f6024925191634b637e8f60e11b8352820152fd5b506103dc33610d35565b61034c565b506103eb33610c0b565b610345565b50335f52600660205260ff835f20541661033e565b8234610142575f3660031901126101425760075490516001600160a01b039091168152602090f35b823461014257602036600319011261014257610447610a56565b61044f610b89565b6001600160a01b031690811561014257815f5260066020525f20600160ff198254161790557f6ae172837ea30b801fbfcdd4108aa1d5bf8ff775444fd70256b44e6bf3dfc3f65f80a2005b8234610142575f366003190112610142578051905f9280549060018260011c9160018416938415610575575b6020948585108114610562578488529081156105405750600114610504575b61050086866104f6828b0383610a82565b5191829182610a0f565b0390f35b5f908152838120939650925b82841061052d5750505082610500946104f69282010194866104e5565b8054868501880152928601928101610510565b60ff191687860152505050151560051b83010192506104f682610500866104e5565b602283634e487b7160e01b5f525260245ffd5b92607f16926104c6565b8234610142575f3660031901126101425760055490516001600160a01b039091168152602090f35b34610142575f366003190112610142576105bf610b89565b600580546001600160a01b031981169091555f906001600160a01b03165f80516020610dce8339815191528280a3005b8234610142576020366003190112610142576020906001600160a01b03610614610a56565b165f525f8252805f20549051908152f35b823461014257806003193601126101425761063e610a56565b60055460243592916001600160a01b03918216331480156106f7575b80156106e8575b80156106d9575b1561014257169283156106c457600254908382018092116106b157505f925f80516020610dee8339815191529260209260025585855284835280852082815401905551908152a3005b601190634e487b7160e01b5f525260245ffd5b5f602492519163ec442f0560e01b8352820152fd5b506106e333610d35565b610668565b506106f233610c0b565b610661565b50335f52600660205260ff835f20541661065a565b8234610142575f366003190112610142576020905160068152f35b823461014257602036600319011261014257610741610a56565b610749610b89565b6001600160a01b031690811561014257815f5260066020525f2060ff1981541690557fe94479a9f7e1952cc78f2d6baab678adc1b772d936c6583def489e524cb666925f80a2005b905034610142576060366003190112610142576107ac610a56565b6107b4610a6c565b906044359260018060a01b038216805f526001602052855f20335f52602052855f2054915f1983106107ef575b602087610304888888610ad7565b85831061085757811561084157331561082b57505f908152600160209081528682203383528152908690209185900390915582906103046107e1565b6024905f885191634a1406b160e11b8352820152fd5b6024905f88519163e602df0560e01b8352820152fd5b90506103b8858751938493637dc7a0d960e11b855233908501610ab9565b8234610142575f366003190112610142576020906002549051908152f35b82346101425780600319360112610142576108ac610a56565b602435903315610925576001600160a01b031690811561090f5760209350335f5260018452825f20825f52845280835f205582519081527f8c5be1e5ebec7d5bd14f71427d1e84f3dd0314c0f7b2291e5b200ac8c7c3b925843392a35160018152f35b8251634a1406b160e11b81525f81860152602490fd5b825163e602df0560e01b81525f81860152602490fd5b8334610142575f366003190112610142575f9260035460018160011c91600181168015610a05575b60209485851082146109f257508387529081156109d25750600114610995575b5050506104f682610500940383610a82565b91945060035f52845f20915f925b8284106109bf5750505082610500946104f69282010194610983565b80548685018801529286019281016109a3565b60ff1916868501525050151560051b83010192506104f682610500610983565b602290634e487b7160e01b5f525260245ffd5b92607f1692610963565b602080825282518183018190529093925f5b828110610a4257505060409293505f838284010152601f8019910116010190565b818101860151848201604001528501610a21565b600435906001600160a01b038216820361014257565b602435906001600160a01b038216820361014257565b601f909101601f19168101906001600160401b03821190821017610aa557604052565b634e487b7160e01b5f52604160045260245ffd5b604091949392606082019560018060a01b0316825260208201520152565b916001600160a01b03808416928315610b715716928315610b5957825f525f60205260405f205490828210610b3c5750815f80516020610dee83398151915292602092855f525f84520360405f2055845f5260405f20818154019055604051908152a3565b6103b88360405193849363391434e360e21b855260048501610ab9565b60405163ec442f0560e01b81525f6004820152602490fd5b604051634b637e8f60e11b81525f6004820152602490fd5b6005546001600160a01b03163303610b9d57565b60405163118cdaa760e01b8152336004820152602490fd5b3d15610bee573d906001600160401b038211610aa55760405191610be3601f8201601f191660200184610a82565b82523d5f602084013e565b606090565b90816020910312610142575180151581036101425790565b6007546001600160a01b039081168015610d2e57604080516303e1469160e61b602080830191825260048352956001600160401b0394939092919082019085821183831017610aa5575f9283926040525190855afa610c68610bb5565b9080610d23575b610cf2575b50604051938585019163429b62e560e01b835216602485015260248452606084019284841090841117610aa5575f93849360405251915afa610cb4610bb5565b9080610ce7575b610cc6575b50505f90565b81610cd79282518301019101610bf3565b610ce2575f80610cc0565b600190565b508181511015610cbb565b8581805181010312610142578501518481168091036101425784821614610d19575f610c74565b5050505050600190565b508581511015610c6f565b5050505f90565b6008546001600160a01b03919082168015610d2e57604051632474521560e21b602082019081525f602483015292909316604480850191909152835260808301916001600160401b03831184841017610aa5575f93849360405251915afa610d9b610bb5565b9080610dc1575b610dab57505f90565b80602080610dbe93518301019101610bf3565b90565b50602081511015610da256fe8be0079c531659141344cd1fd0a4f28419497f9722a3daafe3b4186f6b6457e0ddf252ad1be2c89b69c2b068fc378daa952ba7f163c4a11628f55a4df523b3ef","linkReferences":{}},"methodIdentifiers":{"addMinter(address)":"983b2d56","allowance(address,address)":"dd62ed3e","approve(address,uint256)":"095ea7b3","balanceOf(address)":"70a08231","burn(address,uint256)":"9dc29fac","decimals()":"313ce567","directCore()":"9ba479f1","mint(address,uint256)":"40c10f19","minters(address)":"f46eccc4","name()":"06fdde03","owner()":"8da5cb5b","removeMinter(address)":"3092afd5","renounceOwnership()":"715018a6","setDirectCore(address)":"b5988ebd","setSpeculateCore(address)":"dc7b666e","speculateCore()":"ac3bbbc6","symbol()":"95d89b41","totalSupply()":"18160ddd","transfer(address,uint256)":"a9059cbb","transferFrom(address,address,uint256)":"23b872dd","transferOwnership(address)":"f2fde38b"},"id":42}