{"abi":[{"type":"constructor","inputs":[{"name":"name_","type":"string","internalType":"string"},{"name":"symbol_","type":"string","internalType":"string"},{"name":"admin","type":"address","internalType":"address"}],"stateMutability":"nonpayable"},{"type":"function","name":"BURNER_ROLE","inputs":[],"outputs":[{"name":"","type":"bytes32","internalType":"bytes32"}],"stateMutability":"view"},{"type":"function","name":"DEFAULT_ADMIN_ROLE","inputs":[],"outputs":[{"name":"","type":"bytes32","internalType":"bytes32"}],"stateMutability":"view"},{"type":"function","name":"MINTER_ROLE","inputs":[],"outputs":[{"name":"","type":"bytes32","internalType":"bytes32"}],"stateMutability":"view"},{"type":"function","name":"allowance","inputs":[{"name":"owner","type":"address","internalType":"address"},{"name":"spender","type":"address","internalType":"address"}],"outputs":[{"name":"","type":"uint256","internalType":"uint256"}],"stateMutability":"view"},{"type":"function","name":"approve","inputs":[{"name":"spender","type":"address","internalType":"address"},{"name":"value","type":"uint256","internalType":"uint256"}],"outputs":[{"name":"","type":"bool","internalType":"bool"}],"stateMutability":"nonpayable"},{"type":"function","name":"balanceOf","inputs":[{"name":"account","type":"address","internalType":"address"}],"outputs":[{"name":"","type":"uint256","internalType":"uint256"}],"stateMutability":"view"},{"type":"function","name":"burn","inputs":[{"name":"from","type":"address","internalType":"address"},{"name":"amount","type":"uint256","internalType":"uint256"}],"outputs":[],"stateMutability":"nonpayable"},{"type":"function","name":"decimals","inputs":[],"outputs":[{"name":"","type":"uint8","internalType":"uint8"}],"stateMutability":"pure"},{"type":"function","name":"getRoleAdmin","inputs":[{"name":"role","type":"bytes32","internalType":"bytes32"}],"outputs":[{"name":"","type":"bytes32","internalType":"bytes32"}],"stateMutability":"view"},{"type":"function","name":"grantRole","inputs":[{"name":"role","type":"bytes32","internalType":"bytes32"},{"name":"account","type":"address","internalType":"address"}],"outputs":[],"stateMutability":"nonpayable"},{"type":"function","name":"hasRole","inputs":[{"name":"role","type":"bytes32","internalType":"bytes32"},{"name":"account","type":"address","internalType":"address"}],"outputs":[{"name":"","type":"bool","internalType":"bool"}],"stateMutability":"view"},{"type":"function","name":"mint","inputs":[{"name":"to","type":"address","internalType":"address"},{"name":"amount","type":"uint256","internalType":"uint256"}],"outputs":[],"stateMutability":"nonpayable"},{"type":"function","name":"name","inputs":[],"outputs":[{"name":"","type":"string","internalType":"string"}],"stateMutability":"view"},{"type":"function","name":"renounceRole","inputs":[{"name":"role","type":"bytes32","internalType":"bytes32"},{"name":"callerConfirmation","type":"address","internalType":"address"}],"outputs":[],"stateMutability":"nonpayable"},{"type":"function","name":"revokeRole","inputs":[{"name":"role","type":"bytes32","internalType":"bytes32"},{"name":"account","type":"address","internalType":"address"}],"outputs":[],"stateMutability":"nonpayable"},{"type":"function","name":"supportsInterface","inputs":[{"name":"interfaceId","type":"bytes4","internalType":"bytes4"}],"outputs":[{"name":"","type":"bool","internalType":"bool"}],"stateMutability":"view"},{"type":"function","name":"symbol","inputs":[],"outputs":[{"name":"","type":"string","internalType":"string"}],"stateMutability":"view"},{"type":"function","name":"totalSupply","inputs":[],"outputs":[{"name":"","type":"uint256","internalType":"uint256"}],"stateMutability":"view"},{"type":"function","name":"transfer","inputs":[{"name":"to","type":"address","internalType":"address"},{"name":"value","type":"uint256","internalType":"uint256"}],"outputs":[{"name":"","type":"bool","internalType":"bool"}],"stateMutability":"nonpayable"},{"type":"function","name":"transferFrom","inputs":[{"name":"from","type":"address","internalType":"address"},{"name":"to","type":"address","internalType":"address"},{"name":"value","type":"uint256","internalType":"uint256"}],"outputs":[{"name":"","type":"bool","internalType":"bool"}],"stateMutability":"nonpayable"},{"type":"event","name":"Approval","inputs":[{"name":"owner","type":"address","indexed":true,"internalType":"address"},{"name":"spender","type":"address","indexed":true,"internalType":"address"},{"name":"value","type":"uint256","indexed":false,"internalType":"uint256"}],"anonymous":false},{"type":"event","name":"RoleAdminChanged","inputs":[{"name":"role","type":"bytes32","indexed":true,"internalType":"bytes32"},{"name":"previousAdminRole","type":"bytes32","indexed":true,"internalType":"bytes32"},{"name":"newAdminRole","type":"bytes32","indexed":true,"internalType":"bytes32"}],"anonymous":false},{"type":"event","name":"RoleGranted","inputs":[{"name":"role","type":"bytes32","indexed":true,"internalType":"bytes32"},{"name":"account","type":"address","indexed":true,"internalType":"address"},{"name":"sender","type":"address","indexed":true,"internalType":"address"}],"anonymous":false},{"type":"event","name":"RoleRevoked","inputs":[{"name":"role","type":"bytes32","indexed":true,"internalType":"bytes32"},{"name":"account","type":"address","indexed":true,"internalType":"address"},{"name":"sender","type":"address","indexed":true,"internalType":"address"}],"anonymous":false},{"type":"event","name":"Transfer","inputs":[{"name":"from","type":"address","indexed":true,"internalType":"address"},{"name":"to","type":"address","indexed":true,"internalType":"address"},{"name":"value","type":"uint256","indexed":false,"internalType":"uint256"}],"anonymous":false},{"type":"error","name":"AccessControlBadConfirmation","inputs":[]},{"type":"error","name":"AccessControlUnauthorizedAccount","inputs":[{"name":"account","type":"address","internalType":"address"},{"name":"neededRole","type":"bytes32","internalType":"bytes32"}]},{"type":"error","name":"ERC20InsufficientAllowance","inputs":[{"name":"spender","type":"address","internalType":"address"},{"name":"allowance","type":"uint256","internalType":"uint256"},{"name":"needed","type":"uint256","internalType":"uint256"}]},{"type":"error","name":"ERC20InsufficientBalance","inputs":[{"name":"sender","type":"address","internalType":"address"},{"name":"balance","type":"uint256","internalType":"uint256"},{"name":"needed","type":"uint256","internalType":"uint256"}]},{"type":"error","name":"ERC20InvalidApprover","inputs":[{"name":"approver","type":"address","internalType":"address"}]},{"type":"error","name":"ERC20InvalidReceiver","inputs":[{"name":"receiver","type":"address","internalType":"address"}]},{"type":"error","name":"ERC20InvalidSender","inputs":[{"name":"sender","type":"address","internalType":"address"}]},{"type":"error","name":"ERC20InvalidSpender","inputs":[{"name":"spender","type":"address","internalType":"address"}]}],"bytecode":{"object":"0x60806040523462000344576200116d803803806200001d8162000348565b9283398101606082820312620003445781516001600160401b0391908281116200034457816200004f9185016200036e565b916020918285015182811162000344576040916200006f9187016200036e565b940151926001600160a01b038416840362000344578051908282116200024f576003918254906001928383811c9316801562000339575b8784101462000325578190601f93848111620002d2575b5087908483116001146200026f575f9262000263575b50505f1982861b1c191690831b1783555b86519384116200024f5760049485548381811c9116801562000244575b828210146200023157828111620001e9575b50809185116001146200017d5750839291839162000160985f9562000171575b50501b925f19911b1c19161790555b6200014d81620003de565b5062000159816200044e565b50620004ef565b50604051610ba290816200058b8239f35b015193505f8062000133565b91939290601f19841697865f52835f20935f905b8a8210620001d157505084620001609910620001b7575b50505050811b01905562000142565b01519060f8845f19921b161c191690555f808080620001a8565b80888597829496860151815501960193019062000191565b865f52815f208380880160051c82019284891062000227575b0160051c019084905b8281106200021b57505062000113565b5f81550184906200020b565b9250819262000202565b602287634e487b7160e01b5f525260245ffd5b90607f169062000101565b634e487b7160e01b5f52604160045260245ffd5b015190505f80620000d3565b90859350601f19831691875f52895f20925f5b8b828210620002bb5750508411620002a3575b505050811b018355620000e4565b01515f1983881b60f8161c191690555f808062000295565b838501518655899790950194938401930162000282565b909150855f52875f208480850160051c8201928a86106200031b575b918791869594930160051c01915b8281106200030c575050620000bd565b5f8155859450879101620002fc565b92508192620002ee565b634e487b7160e01b5f52602260045260245ffd5b92607f1692620000a6565b5f80fd5b6040519190601f01601f191682016001600160401b038111838210176200024f57604052565b919080601f84011215620003445782516001600160401b0381116200024f57602090620003a4601f8201601f1916830162000348565b9281845282828701011162000344575f5b818110620003ca5750825f9394955001015290565b8581018301518482018401528201620003b5565b6001600160a01b03165f8181525f805160206200114d833981519152602052604090205460ff1662000449575f8181525f805160206200114d83398151915260205260408120805460ff191660011790553391905f805160206200112d8339815191528180a4600190565b505f90565b6001600160a01b03165f8181527f15a28d26fa1bf736cf7edc9922607171ccb09c3c73b808e7772a3013e068a52260205260409020547f9f2df0fed2c77648de5860a4cc508cd0818c85b8b8a1ab4ceeef8d981c8956a6919060ff16620004e957815f52600560205260405f20815f5260205260405f20600160ff1982541617905533915f805160206200112d8339815191525f80a4600190565b50505f90565b6001600160a01b03165f8181527f847f481f687befb06ed3511f1a8dcef57e83007c0147ae5047583d705617093760205260409020547f3c11d16cbaffd01df69ce1c404f6340ee057498f5f00246190ea54220576a848919060ff16620004e957815f52600560205260405f20815f5260205260405f20600160ff1982541617905533915f805160206200112d8339815191525f80a460019056fe6080604090808252600480361015610015575f80fd5b5f3560e01c91826301ffc9a71461087a5750816306fdde03146107bd578163095ea7b31461071557816318160ddd146106f757816323b872dd14610613578163248a9ca3146105e9578163282c51f3146105c25781632f2ff15d1461059a578163313ce5671461057f57816336568abe1461053b57816340c10f191461045f57816370a082311461042957816391d14854146103e557816395d89b41146102e35781639dc29fac146101f5578163a217fddf146101db578163a9059cbb146101ab578163d539139314610184578163d547741f14610148575063dd62ed3e146100fc575f80fd5b34610144578060031936011261014457602090610117610913565b61011f610929565b9060018060a01b038091165f5260018452825f2091165f528252805f20549051908152f35b5f80fd5b8234610144578060031936011261014457610182913561017d600161016b610929565b93835f5260056020525f200154610a0f565b610acd565b005b8234610144575f36600319011261014457602090515f80516020610b628339815191528152f35b82346101445780600319360112610144576020906101d46101ca610913565b602435903361095d565b5160018152f35b8234610144575f36600319011261014457602090515f8152f35b823461014457806003193601126101445761020e610913565b90602435925f80516020610b42833981519152805f526005602052825f20335f5260205260ff835f205416156102c857506001600160a01b0383169283156102b257835f525f602052825f205491858310610293575f855f80516020610b828339815191526020898881898688528785520381872055816002540360025551908152a3005b6102ae8684865194859463391434e360e21b8652850161093f565b0390fd5b505f6024925191634b637e8f60e11b8352820152fd5b604492519163e2517d3f60e01b835233908301526024820152fd5b8234610144575f366003190112610144578051905f835460018160011c90600183169283156103db575b60209384841081146103c8578388529081156103ac5750600114610374575b505050829003601f01601f19168201926001600160401b03841183851017610361575082918261035d9252826108cc565b0390f35b604190634e487b7160e01b5f525260245ffd5b919250855f52825f2091835f935b838510610398575050505083010184808061032c565b805488860183015293019284908201610382565b60ff1916878501525050151560051b840101905084808061032c565b602289634e487b7160e01b5f525260245ffd5b91607f169161030d565b8234610144578060031936011261014457602091610401610929565b90355f5260058352815f209060018060a01b03165f52825260ff815f20541690519015158152f35b8234610144576020366003190112610144576020906001600160a01b0361044e610913565b165f525f8252805f20549051908152f35b8234610144578060031936011261014457610478610913565b90602435915f80516020610b62833981519152805f526005602052825f20335f5260205260ff835f2054161561051d57506001600160a01b031692831561050857600254908382018092116104f557505f925f80516020610b828339815191529260209260025585855284835280852082815401905551908152a3005b601190634e487b7160e01b5f525260245ffd5b5f602492519163ec442f0560e01b8352820152fd5b825163e2517d3f60e01b815233818701526024810191909152604490fd5b8234610144578060031936011261014457610554610929565b90336001600160a01b0383160361057057506101829135610acd565b5163334bd91960e11b81529050fd5b8234610144575f366003190112610144576020905160128152f35b823461014457806003193601126101445761018291356105bd600161016b610929565b610a4f565b8234610144575f36600319011261014457602090515f80516020610b428339815191528152f35b823461014457602036600319011261014457602091355f52600582526001815f2001549051908152f35b9050346101445760603660031901126101445761062e610913565b610636610929565b906044359260018060a01b038216805f526001602052855f20335f52602052855f2054915f198310610671575b6020876101d488888861095d565b8583106106d95781156106c35733156106ad57505f908152600160209081528682203383528152908690209185900390915582906101d4610663565b6024905f885191634a1406b160e11b8352820152fd5b6024905f88519163e602df0560e01b8352820152fd5b90506102ae858751938493637dc7a0d960e11b85523390850161093f565b8234610144575f366003190112610144576020906002549051908152f35b823461014457806003193601126101445761072e610913565b6024359033156107a7576001600160a01b03169081156107915760209350335f5260018452825f20825f52845280835f205582519081527f8c5be1e5ebec7d5bd14f71427d1e84f3dd0314c0f7b2291e5b200ac8c7c3b925843392a35160018152f35b8251634a1406b160e11b81525f81860152602490fd5b825163e602df0560e01b81525f81860152602490fd5b8234610144575f366003190112610144578051905f60035460018160011c9060018316928315610870575b60209384841081146103c8578388529081156103ac575060011461083757505050829003601f01601f19168201926001600160401b03841183851017610361575082918261035d9252826108cc565b91925060035f52825f2091835f935b83851061085c575050505083010184808061032c565b805488860183015293019284908201610846565b91607f16916107e8565b903461014457602036600319011261014457359063ffffffff60e01b821680920361014457602091637965db0b60e01b81149081156108bb575b5015158152f35b6301ffc9a760e01b149050836108b4565b602080825282518183018190529093925f5b8281106108ff57505060409293505f838284010152601f8019910116010190565b8181018601518482016040015285016108de565b600435906001600160a01b038216820361014457565b602435906001600160a01b038216820361014457565b604091949392606082019560018060a01b0316825260208201520152565b916001600160a01b038084169283156109f757169283156109df57825f525f60205260405f2054908282106109c25750815f80516020610b8283398151915292602092855f525f84520360405f2055845f5260405f20818154019055604051908152a3565b6102ae8360405193849363391434e360e21b85526004850161093f565b60405163ec442f0560e01b81525f6004820152602490fd5b604051634b637e8f60e11b81525f6004820152602490fd5b805f52600560205260405f20335f5260205260ff60405f20541615610a315750565b6044906040519063e2517d3f60e01b82523360048301526024820152fd5b90815f52600560205260405f209060018060a01b031690815f5260205260ff60405f205416155f14610ac757815f52600560205260405f20815f5260205260405f20600160ff1982541617905533917f2f8788117e7eff1d82e926ec794901d17c78024a50270940304540a733656f0d5f80a4600190565b50505f90565b90815f52600560205260405f209060018060a01b031690815f5260205260ff60405f2054165f14610ac757815f52600560205260405f20815f5260205260405f2060ff19815416905533917ff6391f5c32d9c69d2a47ea670b442974b53935d1edc7fd64eb21e047a839171b5f80a460019056fe3c11d16cbaffd01df69ce1c404f6340ee057498f5f00246190ea54220576a8489f2df0fed2c77648de5860a4cc508cd0818c85b8b8a1ab4ceeef8d981c8956a6ddf252ad1be2c89b69c2b068fc378daa952ba7f163c4a11628f55a4df523b3ef2f8788117e7eff1d82e926ec794901d17c78024a50270940304540a733656f0d05b8ccbb9d4d8fb16ea74ce3c29a41f1b461fbdaff4714a0d9a8eb05499746bc","linkReferences":{}},"methodIdentifiers":{"BURNER_ROLE()":"282c51f3","DEFAULT_ADMIN_ROLE()":"a217fddf","MINTER_ROLE()":"d5391393","allowance(address,address)":"dd62ed3e","approve(address,uint256)":"095ea7b3","balanceOf(address)":"70a08231","burn(address,uint256)":"9dc29fac","decimals()":"313ce567","getRoleAdmin(bytes32)":"248a9ca3","grantRole(bytes32,address)":"2f2ff15d","hasRole(bytes32,address)":"91d14854","mint(address,uint256)":"40c10f19","name()":"06fdde03","renounceRole(bytes32,address)":"36568abe","revokeRole(bytes32,address)":"d547741f","supportsInterface(bytes4)":"01ffc9a7","symbol()":"95d89b41","totalSupply()":"18160ddd","transfer(address,uint256)":"a9059cbb","transferFrom(address,address,uint256)":"23b872dd"},"id":43}