{"abi":[{"type":"constructor","inputs":[{"name":"_usdc","type":"address","internalType":"address"},{"name":"_treasury","type":"address","internalType":"address"}],"stateMutability":"nonpayable"},{"type":"function","name":"DEFAULT_ADMIN_ROLE","inputs":[],"outputs":[{"name":"","type":"bytes32","internalType":"bytes32"}],"stateMutability":"view"},{"type":"function","name":"DUST_THRESHOLD","inputs":[],"outputs":[{"name":"","type":"uint256","internalType":"uint256"}],"stateMutability":"view"},{"type":"function","name":"MARKET_CREATOR_ROLE","inputs":[],"outputs":[{"name":"","type":"bytes32","internalType":"bytes32"}],"stateMutability":"view"},{"type":"function","name":"MAX_USDC_PER_TRADE","inputs":[],"outputs":[{"name":"","type":"uint256","internalType":"uint256"}],"stateMutability":"view"},{"type":"function","name":"MIN_LIQUIDITY_ADD","inputs":[],"outputs":[{"name":"","type":"uint256","internalType":"uint256"}],"stateMutability":"view"},{"type":"function","name":"MIN_MARKET_SEED","inputs":[],"outputs":[{"name":"","type":"uint256","internalType":"uint256"}],"stateMutability":"view"},{"type":"function","name":"ORACLE_STALENESS_THRESHOLD","inputs":[],"outputs":[{"name":"","type":"uint256","internalType":"uint256"}],"stateMutability":"view"},{"type":"function","name":"PRICE_DECIMALS_E18","inputs":[],"outputs":[{"name":"","type":"uint256","internalType":"uint256"}],"stateMutability":"view"},{"type":"function","name":"PRICE_DECIMALS_E6","inputs":[],"outputs":[{"name":"","type":"uint256","internalType":"uint256"}],"stateMutability":"view"},{"type":"function","name":"USDC_TO_E18","inputs":[],"outputs":[{"name":"","type":"uint256","internalType":"uint256"}],"stateMutability":"view"},{"type":"function","name":"accFeePerUSDCE18","inputs":[{"name":"","type":"uint256","internalType":"uint256"}],"outputs":[{"name":"","type":"uint256","internalType":"uint256"}],"stateMutability":"view"},{"type":"function","name":"accResidualPerUSDCE18","inputs":[{"name":"","type":"uint256","internalType":"uint256"}],"outputs":[{"name":"","type":"uint256","internalType":"uint256"}],"stateMutability":"view"},{"type":"function","name":"addLiquidity","inputs":[{"name":"id","type":"uint256","internalType":"uint256"},{"name":"usdcAdd","type":"uint256","internalType":"uint256"}],"outputs":[],"stateMutability":"nonpayable"},{"type":"function","name":"buyNo","inputs":[{"name":"id","type":"uint256","internalType":"uint256"},{"name":"usdcIn","type":"uint256","internalType":"uint256"},{"name":"minOut","type":"uint256","internalType":"uint256"}],"outputs":[],"stateMutability":"nonpayable"},{"type":"function","name":"buyYes","inputs":[{"name":"id","type":"uint256","internalType":"uint256"},{"name":"usdcIn","type":"uint256","internalType":"uint256"},{"name":"minOut","type":"uint256","internalType":"uint256"}],"outputs":[],"stateMutability":"nonpayable"},{"type":"function","name":"chainlinkResolver","inputs":[],"outputs":[{"name":"","type":"address","internalType":"address"}],"stateMutability":"view"},{"type":"function","name":"checkUpkeep","inputs":[{"name":"id","type":"uint256","internalType":"uint256"}],"outputs":[{"name":"","type":"bool","internalType":"bool"},{"name":"","type":"bytes","internalType":"bytes"}],"stateMutability":"view"},{"type":"function","name":"claimLpFees","inputs":[{"name":"id","type":"uint256","internalType":"uint256"}],"outputs":[],"stateMutability":"nonpayable"},{"type":"function","name":"claimLpResidual","inputs":[{"name":"id","type":"uint256","internalType":"uint256"}],"outputs":[],"stateMutability":"nonpayable"},{"type":"function","name":"createMarket","inputs":[{"name":"question","type":"string","internalType":"string"},{"name":"yesName","type":"string","internalType":"string"},{"name":"yesSymbol","type":"string","internalType":"string"},{"name":"noName","type":"string","internalType":"string"},{"name":"noSymbol","type":"string","internalType":"string"},{"name":"initUsdc","type":"uint256","internalType":"uint256"},{"name":"expiryTimestamp","type":"uint256","internalType":"uint256"},{"name":"oracle","type":"address","internalType":"address"},{"name":"priceFeedId","type":"bytes32","internalType":"bytes32"},{"name":"targetValue","type":"uint256","internalType":"uint256"},{"name":"comparison","type":"uint8","internalType":"enum SpeculateCore.Comparison"}],"outputs":[{"name":"id","type":"uint256","internalType":"uint256"}],"stateMutability":"nonpayable"},{"type":"function","name":"finalizeResidual","inputs":[{"name":"id","type":"uint256","internalType":"uint256"}],"outputs":[],"stateMutability":"nonpayable"},{"type":"function","name":"getMarketResolution","inputs":[{"name":"id","type":"uint256","internalType":"uint256"}],"outputs":[{"name":"","type":"tuple","internalType":"struct SpeculateCore.ResolutionConfig","components":[{"name":"expiryTimestamp","type":"uint256","internalType":"uint256"},{"name":"oracleType","type":"uint8","internalType":"enum SpeculateCore.OracleType"},{"name":"oracleAddress","type":"address","internalType":"address"},{"name":"priceFeedId","type":"bytes32","internalType":"bytes32"},{"name":"targetValue","type":"uint256","internalType":"uint256"},{"name":"comparison","type":"uint8","internalType":"enum SpeculateCore.Comparison"},{"name":"yesWins","type":"bool","internalType":"bool"},{"name":"isResolved","type":"bool","internalType":"bool"}]}],"stateMutability":"view"},{"type":"function","name":"getMarketState","inputs":[{"name":"id","type":"uint256","internalType":"uint256"}],"outputs":[{"name":"qYes","type":"uint256","internalType":"uint256"},{"name":"qNo","type":"uint256","internalType":"uint256"},{"name":"vault","type":"uint256","internalType":"uint256"},{"name":"b","type":"uint256","internalType":"uint256"},{"name":"pYesE6","type":"uint256","internalType":"uint256"}],"stateMutability":"view"},{"type":"function","name":"getRoleAdmin","inputs":[{"name":"role","type":"bytes32","internalType":"bytes32"}],"outputs":[{"name":"","type":"bytes32","internalType":"bytes32"}],"stateMutability":"view"},{"type":"function","name":"grantRole","inputs":[{"name":"role","type":"bytes32","internalType":"bytes32"},{"name":"account","type":"address","internalType":"address"}],"outputs":[],"stateMutability":"nonpayable"},{"type":"function","name":"hasRole","inputs":[{"name":"role","type":"bytes32","internalType":"bytes32"},{"name":"account","type":"address","internalType":"address"}],"outputs":[{"name":"","type":"bool","internalType":"bool"}],"stateMutability":"view"},{"type":"function","name":"invariantUsdc","inputs":[{"name":"id","type":"uint256","internalType":"uint256"}],"outputs":[{"name":"","type":"uint256","internalType":"uint256"}],"stateMutability":"view"},{"type":"function","name":"liabilityE6","inputs":[{"name":"id","type":"uint256","internalType":"uint256"}],"outputs":[{"name":"","type":"uint256","internalType":"uint256"}],"stateMutability":"view"},{"type":"function","name":"liquidityMultiplierE18","inputs":[],"outputs":[{"name":"","type":"uint256","internalType":"uint256"}],"stateMutability":"view"},{"type":"function","name":"lpFeeDebt","inputs":[{"name":"","type":"uint256","internalType":"uint256"},{"name":"","type":"address","internalType":"address"}],"outputs":[{"name":"","type":"uint256","internalType":"uint256"}],"stateMutability":"view"},{"type":"function","name":"lpResidualDebt","inputs":[{"name":"","type":"uint256","internalType":"uint256"},{"name":"","type":"address","internalType":"address"}],"outputs":[{"name":"","type":"uint256","internalType":"uint256"}],"stateMutability":"view"},{"type":"function","name":"lpResidualUSDC","inputs":[{"name":"","type":"uint256","internalType":"uint256"}],"outputs":[{"name":"","type":"uint256","internalType":"uint256"}],"stateMutability":"view"},{"type":"function","name":"lpShares","inputs":[{"name":"","type":"uint256","internalType":"uint256"},{"name":"","type":"address","internalType":"address"}],"outputs":[{"name":"","type":"uint256","internalType":"uint256"}],"stateMutability":"view"},{"type":"function","name":"marketCount","inputs":[],"outputs":[{"name":"","type":"uint256","internalType":"uint256"}],"stateMutability":"view"},{"type":"function","name":"markets","inputs":[{"name":"","type":"uint256","internalType":"uint256"}],"outputs":[{"name":"yes","type":"address","internalType":"contract PositionToken"},{"name":"no","type":"address","internalType":"contract PositionToken"},{"name":"qYes","type":"uint256","internalType":"uint256"},{"name":"qNo","type":"uint256","internalType":"uint256"},{"name":"bE18","type":"uint256","internalType":"uint256"},{"name":"usdcVault","type":"uint256","internalType":"uint256"},{"name":"feeTreasuryBps","type":"uint16","internalType":"uint16"},{"name":"feeVaultBps","type":"uint16","internalType":"uint16"},{"name":"feeLpBps","type":"uint16","internalType":"uint16"},{"name":"status","type":"uint8","internalType":"enum SpeculateCore.MarketStatus"},{"name":"question","type":"string","internalType":"string"},{"name":"lp","type":"address","internalType":"address"},{"name":"resolution","type":"tuple","internalType":"struct SpeculateCore.ResolutionConfig","components":[{"name":"expiryTimestamp","type":"uint256","internalType":"uint256"},{"name":"oracleType","type":"uint8","internalType":"enum SpeculateCore.OracleType"},{"name":"oracleAddress","type":"address","internalType":"address"},{"name":"priceFeedId","type":"bytes32","internalType":"bytes32"},{"name":"targetValue","type":"uint256","internalType":"uint256"},{"name":"comparison","type":"uint8","internalType":"enum SpeculateCore.Comparison"},{"name":"yesWins","type":"bool","internalType":"bool"},{"name":"isResolved","type":"bool","internalType":"bool"}]},{"name":"totalLpUsdc","type":"uint256","internalType":"uint256"},{"name":"lpFeesUSDC","type":"uint256","internalType":"uint256"},{"name":"maxUsdcPerTrade","type":"uint256","internalType":"uint256"},{"name":"priceBandThreshold","type":"uint256","internalType":"uint256"},{"name":"maxJumpE18","type":"uint256","internalType":"uint256"}],"stateMutability":"view"},{"type":"function","name":"maxInstantJumpE18","inputs":[],"outputs":[{"name":"","type":"uint256","internalType":"uint256"}],"stateMutability":"view"},{"type":"function","name":"maxUsdcBeforeJump","inputs":[{"name":"id","type":"uint256","internalType":"uint256"},{"name":"isYes","type":"bool","internalType":"bool"}],"outputs":[{"name":"maxUsdcE6","type":"uint256","internalType":"uint256"}],"stateMutability":"view"},{"type":"function","name":"pendingLpFees","inputs":[{"name":"id","type":"uint256","internalType":"uint256"},{"name":"lp","type":"address","internalType":"address"}],"outputs":[{"name":"","type":"uint256","internalType":"uint256"}],"stateMutability":"view"},{"type":"function","name":"pendingLpResidual","inputs":[{"name":"id","type":"uint256","internalType":"uint256"},{"name":"lp","type":"address","internalType":"address"}],"outputs":[{"name":"","type":"uint256","internalType":"uint256"}],"stateMutability":"view"},{"type":"function","name":"redeem","inputs":[{"name":"id","type":"uint256","internalType":"uint256"},{"name":"isYes","type":"bool","internalType":"bool"}],"outputs":[],"stateMutability":"nonpayable"},{"type":"function","name":"renounceRole","inputs":[{"name":"role","type":"bytes32","internalType":"bytes32"},{"name":"callerConfirmation","type":"address","internalType":"address"}],"outputs":[],"stateMutability":"nonpayable"},{"type":"function","name":"resolveMarket","inputs":[{"name":"id","type":"uint256","internalType":"uint256"},{"name":"yesWins","type":"bool","internalType":"bool"}],"outputs":[],"stateMutability":"nonpayable"},{"type":"function","name":"resolveMarketWithPrice","inputs":[{"name":"id","type":"uint256","internalType":"uint256"},{"name":"price","type":"uint256","internalType":"uint256"}],"outputs":[],"stateMutability":"nonpayable"},{"type":"function","name":"resolveWithFeed","inputs":[{"name":"id","type":"uint256","internalType":"uint256"}],"outputs":[],"stateMutability":"nonpayable"},{"type":"function","name":"revokeRole","inputs":[{"name":"role","type":"bytes32","internalType":"bytes32"},{"name":"account","type":"address","internalType":"address"}],"outputs":[],"stateMutability":"nonpayable"},{"type":"function","name":"sellNo","inputs":[{"name":"id","type":"uint256","internalType":"uint256"},{"name":"tokensIn","type":"uint256","internalType":"uint256"},{"name":"minOut","type":"uint256","internalType":"uint256"}],"outputs":[],"stateMutability":"nonpayable"},{"type":"function","name":"sellYes","inputs":[{"name":"id","type":"uint256","internalType":"uint256"},{"name":"tokensIn","type":"uint256","internalType":"uint256"},{"name":"minOut","type":"uint256","internalType":"uint256"}],"outputs":[],"stateMutability":"nonpayable"},{"type":"function","name":"setChainlinkResolver","inputs":[{"name":"a","type":"address","internalType":"address"}],"outputs":[],"stateMutability":"nonpayable"},{"type":"function","name":"setLiquidityMultiplier","inputs":[{"name":"x","type":"uint256","internalType":"uint256"}],"outputs":[],"stateMutability":"nonpayable"},{"type":"function","name":"setMarketMaxInstantJump","inputs":[{"name":"id","type":"uint256","internalType":"uint256"},{"name":"vE18","type":"uint256","internalType":"uint256"}],"outputs":[],"stateMutability":"nonpayable"},{"type":"function","name":"setMaxInstantJump","inputs":[{"name":"vE18","type":"uint256","internalType":"uint256"}],"outputs":[],"stateMutability":"nonpayable"},{"type":"function","name":"setMaxUsdcPerTrade","inputs":[{"name":"id","type":"uint256","internalType":"uint256"},{"name":"v","type":"uint256","internalType":"uint256"}],"outputs":[],"stateMutability":"nonpayable"},{"type":"function","name":"setPriceBandThreshold","inputs":[{"name":"id","type":"uint256","internalType":"uint256"},{"name":"v","type":"uint256","internalType":"uint256"}],"outputs":[],"stateMutability":"nonpayable"},{"type":"function","name":"setPriceFeedId","inputs":[{"name":"id","type":"uint256","internalType":"uint256"},{"name":"feedId","type":"bytes32","internalType":"bytes32"}],"outputs":[],"stateMutability":"nonpayable"},{"type":"function","name":"setTreasury","inputs":[{"name":"a","type":"address","internalType":"address"}],"outputs":[],"stateMutability":"nonpayable"},{"type":"function","name":"spotPriceNoE6","inputs":[{"name":"id","type":"uint256","internalType":"uint256"}],"outputs":[{"name":"","type":"uint256","internalType":"uint256"}],"stateMutability":"view"},{"type":"function","name":"spotPriceYesE18","inputs":[{"name":"id","type":"uint256","internalType":"uint256"}],"outputs":[{"name":"","type":"uint256","internalType":"uint256"}],"stateMutability":"view"},{"type":"function","name":"spotPriceYesE6","inputs":[{"name":"id","type":"uint256","internalType":"uint256"}],"outputs":[{"name":"","type":"uint256","internalType":"uint256"}],"stateMutability":"view"},{"type":"function","name":"supportsInterface","inputs":[{"name":"interfaceId","type":"bytes4","internalType":"bytes4"}],"outputs":[{"name":"","type":"bool","internalType":"bool"}],"stateMutability":"view"},{"type":"function","name":"sweepDust","inputs":[{"name":"id","type":"uint256","internalType":"uint256"},{"name":"to","type":"address","internalType":"address"},{"name":"amount","type":"uint256","internalType":"uint256"}],"outputs":[],"stateMutability":"nonpayable"},{"type":"function","name":"topUpVault","inputs":[{"name":"id","type":"uint256","internalType":"uint256"},{"name":"amount","type":"uint256","internalType":"uint256"}],"outputs":[],"stateMutability":"nonpayable"},{"type":"function","name":"treasury","inputs":[],"outputs":[{"name":"","type":"address","internalType":"address"}],"stateMutability":"view"},{"type":"function","name":"usdc","inputs":[],"outputs":[{"name":"","type":"address","internalType":"contract IERC20"}],"stateMutability":"view"},{"type":"event","name":"Buy","inputs":[{"name":"id","type":"uint256","indexed":true,"internalType":"uint256"},{"name":"user","type":"address","indexed":true,"internalType":"address"},{"name":"isYes","type":"bool","indexed":false,"internalType":"bool"},{"name":"usdcIn","type":"uint256","indexed":false,"internalType":"uint256"},{"name":"tokensOut","type":"uint256","indexed":false,"internalType":"uint256"},{"name":"priceE6","type":"uint256","indexed":false,"internalType":"uint256"}],"anonymous":false},{"type":"event","name":"ChainlinkResolverSet","inputs":[{"name":"oldResolver","type":"address","indexed":true,"internalType":"address"},{"name":"newResolver","type":"address","indexed":true,"internalType":"address"}],"anonymous":false},{"type":"event","name":"DustSwept","inputs":[{"name":"id","type":"uint256","indexed":true,"internalType":"uint256"},{"name":"to","type":"address","indexed":true,"internalType":"address"},{"name":"amount","type":"uint256","indexed":false,"internalType":"uint256"}],"anonymous":false},{"type":"event","name":"LiquidityAdded","inputs":[{"name":"id","type":"uint256","indexed":true,"internalType":"uint256"},{"name":"lp","type":"address","indexed":true,"internalType":"address"},{"name":"usdcAdd","type":"uint256","indexed":false,"internalType":"uint256"}],"anonymous":false},{"type":"event","name":"LiquidityMultiplierSet","inputs":[{"name":"oldMultiplier","type":"uint256","indexed":false,"internalType":"uint256"},{"name":"newMultiplier","type":"uint256","indexed":false,"internalType":"uint256"}],"anonymous":false},{"type":"event","name":"LpFeesClaimed","inputs":[{"name":"id","type":"uint256","indexed":true,"internalType":"uint256"},{"name":"lp","type":"address","indexed":true,"internalType":"address"},{"name":"amount","type":"uint256","indexed":false,"internalType":"uint256"}],"anonymous":false},{"type":"event","name":"LpResidualClaimed","inputs":[{"name":"id","type":"uint256","indexed":true,"internalType":"uint256"},{"name":"lp","type":"address","indexed":true,"internalType":"address"},{"name":"amount","type":"uint256","indexed":false,"internalType":"uint256"}],"anonymous":false},{"type":"event","name":"MarketCreated","inputs":[{"name":"id","type":"uint256","indexed":true,"internalType":"uint256"},{"name":"yes","type":"address","indexed":false,"internalType":"address"},{"name":"no","type":"address","indexed":false,"internalType":"address"},{"name":"question","type":"string","indexed":false,"internalType":"string"},{"name":"initUsdc","type":"uint256","indexed":false,"internalType":"uint256"},{"name":"expiryTimestamp","type":"uint256","indexed":false,"internalType":"uint256"}],"anonymous":false},{"type":"event","name":"MarketMaxInstantJumpSet","inputs":[{"name":"id","type":"uint256","indexed":true,"internalType":"uint256"},{"name":"oldJump","type":"uint256","indexed":false,"internalType":"uint256"},{"name":"newJump","type":"uint256","indexed":false,"internalType":"uint256"}],"anonymous":false},{"type":"event","name":"MarketResolved","inputs":[{"name":"id","type":"uint256","indexed":true,"internalType":"uint256"},{"name":"yesWins","type":"bool","indexed":false,"internalType":"bool"}],"anonymous":false},{"type":"event","name":"MaxInstantJumpSet","inputs":[{"name":"oldJump","type":"uint256","indexed":false,"internalType":"uint256"},{"name":"newJump","type":"uint256","indexed":false,"internalType":"uint256"}],"anonymous":false},{"type":"event","name":"MaxUsdcPerTradeSet","inputs":[{"name":"id","type":"uint256","indexed":true,"internalType":"uint256"},{"name":"oldMax","type":"uint256","indexed":false,"internalType":"uint256"},{"name":"newMax","type":"uint256","indexed":false,"internalType":"uint256"}],"anonymous":false},{"type":"event","name":"PriceBandThresholdSet","inputs":[{"name":"id","type":"uint256","indexed":true,"internalType":"uint256"},{"name":"oldThreshold","type":"uint256","indexed":false,"internalType":"uint256"},{"name":"newThreshold","type":"uint256","indexed":false,"internalType":"uint256"}],"anonymous":false},{"type":"event","name":"PriceFeedIdSet","inputs":[{"name":"id","type":"uint256","indexed":true,"internalType":"uint256"},{"name":"oldFeedId","type":"bytes32","indexed":false,"internalType":"bytes32"},{"name":"newFeedId","type":"bytes32","indexed":false,"internalType":"bytes32"}],"anonymous":false},{"type":"event","name":"Redeemed","inputs":[{"name":"id","type":"uint256","indexed":true,"internalType":"uint256"},{"name":"user","type":"address","indexed":true,"internalType":"address"},{"name":"usdcOut","type":"uint256","indexed":false,"internalType":"uint256"}],"anonymous":false},{"type":"event","name":"ResidualFinalized","inputs":[{"name":"id","type":"uint256","indexed":true,"internalType":"uint256"},{"name":"amountIndexed","type":"uint256","indexed":false,"internalType":"uint256"},{"name":"totalLp","type":"uint256","indexed":false,"internalType":"uint256"}],"anonymous":false},{"type":"event","name":"RoleAdminChanged","inputs":[{"name":"role","type":"bytes32","indexed":true,"internalType":"bytes32"},{"name":"previousAdminRole","type":"bytes32","indexed":true,"internalType":"bytes32"},{"name":"newAdminRole","type":"bytes32","indexed":true,"internalType":"bytes32"}],"anonymous":false},{"type":"event","name":"RoleGranted","inputs":[{"name":"role","type":"bytes32","indexed":true,"internalType":"bytes32"},{"name":"account","type":"address","indexed":true,"internalType":"address"},{"name":"sender","type":"address","indexed":true,"internalType":"address"}],"anonymous":false},{"type":"event","name":"RoleRevoked","inputs":[{"name":"role","type":"bytes32","indexed":true,"internalType":"bytes32"},{"name":"account","type":"address","indexed":true,"internalType":"address"},{"name":"sender","type":"address","indexed":true,"internalType":"address"}],"anonymous":false},{"type":"event","name":"Sell","inputs":[{"name":"id","type":"uint256","indexed":true,"internalType":"uint256"},{"name":"user","type":"address","indexed":true,"internalType":"address"},{"name":"isYes","type":"bool","indexed":false,"internalType":"bool"},{"name":"tokensIn","type":"uint256","indexed":false,"internalType":"uint256"},{"name":"usdcOut","type":"uint256","indexed":false,"internalType":"uint256"},{"name":"priceE6","type":"uint256","indexed":false,"internalType":"uint256"}],"anonymous":false},{"type":"event","name":"TreasurySet","inputs":[{"name":"oldTreasury","type":"address","indexed":true,"internalType":"address"},{"name":"newTreasury","type":"address","indexed":true,"internalType":"address"}],"anonymous":false},{"type":"event","name":"VaultTopUp","inputs":[{"name":"id","type":"uint256","indexed":true,"internalType":"uint256"},{"name":"amount","type":"uint256","indexed":false,"internalType":"uint256"}],"anonymous":false},{"type":"error","name":"AccessControlBadConfirmation","inputs":[]},{"type":"error","name":"AccessControlUnauthorizedAccount","inputs":[{"name":"account","type":"address","internalType":"address"},{"name":"neededRole","type":"bytes32","internalType":"bytes32"}]},{"type":"error","name":"PriceJumpTooLarge","inputs":[{"name":"currentE18","type":"uint256","internalType":"uint256"},{"name":"newE18","type":"uint256","internalType":"uint256"},{"name":"maxJumpE18","type":"uint256","internalType":"uint256"}]},{"type":"error","name":"ReentrancyGuardReentrantCall","inputs":[]},{"type":"error","name":"SafeERC20FailedOperation","inputs":[{"name":"token","type":"address","internalType":"address"}]}],"bytecode":{"object":"0x60a0346200012357601f62005c4f38819003918201601f19168301916001600160401b038311848410176200013357808492604094855283398101031262000123576200005a6020620000528362000147565b920162000147565b60018055670de0b6b3a7640000600455670214e8348c4f00006005556001600160a01b039182168015158062000127575b1562000123576080521660018060a01b03196002541617600255620000b0336200015c565b50620000bc33620001cc565b506040516159a290816200026d8239608051818181610424015281816109f001528181610ecf0152818161121901528181611d2001528181611e2f015281816127ed01528181612e4b01528181612f1b015281816132b701528181613b170152613c410152f35b5f80fd5b5082821615156200008b565b634e487b7160e01b5f52604160045260245ffd5b51906001600160a01b03821682036200012357565b6001600160a01b03165f8181525f8051602062005c2f833981519152602052604090205460ff16620001c7575f8181525f8051602062005c2f83398151915260205260408120805460ff191660011790553391905f8051602062005c0f8339815191528180a4600190565b505f90565b6001600160a01b03165f8181527f2412b2af58bf3b93d578a423d333d33fb94fb5093f9cda1aed2eaafb3215f92960205260409020547fd3065a24ad9e7725d223007135762d2902038999e3e5829146654498a58d9795919060ff166200026657815f525f60205260405f20815f5260205260405f20600160ff1982541617905533915f8051602062005c0f8339815191525f80a4600190565b50505f9056fe608080604052600436101562000013575f80fd5b5f905f3560e01c90816301ffc9a7146200340b575080630e325fb514620033a957806316fe6929146200312d578063232e45d714620030b1578063248a9ca3146200308357806326cace84146200301c5780632ed13b781462002ffd5780632f2ff15d1462002fb957806336568abe1462002f69578063390c51f11462002f4a5780633e413bee1462002f0457806343abd9ea1462002ee35780634cded88d1462002d695780634ce7ee341462002d455780634dbe86971462002d275780634f6ac0371462002cfb57806356c8d23d146200235257806357bde44614620022ac57806361d027b314620022815780636aa083b914620022385780636ad6c25414620022155780636bcbb8a514620021cc5780637b4e74701462001cbb5780637f8a3f8c14620021a1578063866fdc43146200212c578063878cb21114620020af57806388b1f1c314620020325780638a97700e14620020045780638e28d9e01462001fd757806391d148541462001f8a57806399406c9b1462001f5f5780639cd441da1462001dd65780639da4f13d1462001daa5780639f29c18f1462001d7d578063a217fddf1462001d5f578063a6ef3bd11462001cc1578063a6f57be31462001cbb578063a7918a651462001c39578063aa93f4621462001c17578063ae42820c1462001bec578063b1283e771462001a00578063b4fb88b714620019bd578063b7a8d60e146200198b578063bad260f5146200191a578063bd17dab414620018b6578063c11951281462001843578063cab7cde914620016c7578063cd23351214620014db578063cde0d59d146200148b578063d105e1c6146200146b578063d547741f1462001422578063d65a06b01462001046578063dd7dc9a91462001028578063dfe0662a1462000ff6578063dffad4e21462000d44578063e72012a71462000d18578063ea1758941462000931578063ec9790821462000911578063f0f4426014620008a0578063f6efac461462000879578063f7d334ba1462000783578063fb27260b146200035e5763ffe2a9451462000313575f80fd5b346200035b5760403660031901126200035b5760406200033262003522565b916004358152600a602052209060018060a01b03165f52602052602060405f2054604051908152f35b80fd5b50346200035b5762000370366200347a565b6200037d92919262003fbb565b5f825f52600660205260405f2060068101549260ff8460301c16620003a28162003495565b6200061157600982015442101562000611576010820154801562000776575b8611620006115761ffff936127106200040381620003e28885168b62003817565b049682620003f6828660101c168c62003817565b049360201c168962003817565b049062000421826200041b836200041b8a8d62003758565b62003758565b957f000000000000000000000000000000000000000000000000000000000000000090620004528a30338562004111565b8062000754575b5050806200073a575b5080158015620006d4575b505060058201620004808582546200374a565b80915564e8d4a51000938486029580870486149015171562000615576002840193845493600382019384546004840196620004c08854809c84846200424a565b9a60648c111562000611578b90836011880154861062000631575b5050620004e8916200374a565b90808211156200062957505b620f4240908181029181830414901517156200061557670de0b6b3a7640000900411620006115787106200061157546001600160a01b0316803b1562000611575f60405180926340c10f1960e01b8252818381620005578d336004840162003cad565b03925af180156200060657620005f2575b50620005768685546200374a565b80945584880290888204861489151715620005de5750906200059f86620005aa9594936200382b565b50549054916200416c565b049060405193600185526020850152604084015260608301525f805160206200594283398151915260803393a36001805580f35b634e487b7160e01b81526011600452602490fd5b620005fe91506200356d565b5f8062000568565b6040513d5f823e3d90fd5b5f80fd5b634e487b7160e01b5f52601160045260245ffd5b9050620004f4565b816200064e9162000648620006579495876200374a565b6200416c565b9184846200416c565b81811115620006c2576200066c828262003758565b60128801548015620006b65780915b116200068c57508c915083620004db565b60405163edcc60a360e01b8152600481019290925260248201929092526044810191909152606490fd5b5060055480916200067b565b620006ce818362003758565b6200066c565b600e84015480156200061157670de0b6b3a76400009182840292848404141715620006155762000704916200382b565b865f5260096020526200071d60405f209182546200374a565b905562000730600f84019182546200374a565b90555f806200046d565b6200074b600585019182546200374a565b90555f62000462565b6002546200076e926001600160a01b0390911690620040cf565b5f8062000459565b5064174876e800620003c1565b50346200035b5760203660031901126200035b576040600435918281526006602052209060ff600683015460301c16620007bd8162003495565b15918262000865575b8262000855575b8262000836575b50604080516020808201939093529182528101916001600160401b038311828410176200082257826040521515825260406060820152603f19906200081d60808201826200370a565b030190f35b634e487b7160e01b5f52604160045260245ffd5b60ff919250600a0154166200084b8162003495565b1515905f620007d4565b60098101544210159250620007cd565b600d81015460101c60ff16159250620007c6565b50346200035b576020620008986200089136620035ff565b9062003cc8565b604051908152f35b50346200035b5760203660031901126200035b57620008be62003539565b620008c862003f24565b600280546001600160a01b039283166001600160a01b0319821681179092559091167f21eb548722a564f6e09f039f7aa858ae94c911910f3823b37af2250eeca4f4038380a380f35b50346200035b57806003193601126200035b576020600754604051908152f35b50346200035b5762000943366200347a565b91906200094f62003fbb565b815f52600660205260405f209060068201549160ff8360301c16620009748162003495565b6200061157600981015442101562000611576010810154801562000d0b575b8211620006115761ffff92612710620009d581620009b48785168762003817565b049582620009c8828660101c168862003817565b049360201c168562003817565b0490620009ed826200041b836200041b898962003758565b947f00000000000000000000000000000000000000000000000000000000000000009062000a1e8630338562004111565b8062000ce9575b50508062000ccf575b508015801562000c69575b5050600581019462000a4d8487546200374a565b80965564e8d4a51000918285029480860484149015171562000615575f96600382019182549360028201928354600484019662000a8f8854809c84846200424a565b9a60648c111562000611578b906011870154851062000bf1575b5062000ab5916200374a565b8082111562000be957505b620f4240908181029181830414901517156200061557670de0b6b3a7640000900411620006115787106200061157600101546001600160a01b0316803b1562000611575f60405180926340c10f1960e01b825281838162000b268d336004840162003cad565b03925af18015620006065762000bd3575b5062000b458683546200374a565b80925583850285810485148615171562000bbf57928695949262000b8d9262000b825f80516020620059428339815191529962000bb5976200382b565b50549154916200416c565b0460405193849333988590949392606092608083019615158352602083015260408201520152565b0390a36001805580f35b634e487b7160e01b89526011600452602489fd5b62000be09198506200356d565b5f965f62000b37565b905062000ac0565b9062000c0e8262000c0762000c1793866200374a565b866200416c565b9183856200416c565b8181111562000c575762000c2c828262003758565b6012880154801562000c4b5780915b116200068c57508c915062000aa9565b50600554809162000c3b565b62000c63818362003758565b62000c2c565b600e83015480156200061157670de0b6b3a76400009182840292848404141715620006155762000c99916200382b565b855f52600960205262000cb260405f209182546200374a565b905562000cc5600f83019182546200374a565b90555f8062000a39565b62000ce0600584019182546200374a565b90555f62000a2e565b60025462000d03926001600160a01b0390911690620040cf565b5f8062000a25565b5064174876e80062000993565b50346200035b5760203660031901126200035b5760406020916004358152600b83522054604051908152f35b50346200035b5762000d56366200347a565b62000d6392919262003fbb565b5f825f52600660205260405f209060ff600683015460301c1662000d878162003495565b6200061157606485111562000611576002820154808611620006115760038301549360048401549164e8d4a5100062000de68962000ddf868a62000dd962000dd183838a6200432c565b948862003758565b6200432c565b9062003758565b0495600586015493848811620006115762000e028a8462003758565b918083111562000fef57825b620f4240908181029181830414901517156200061557670de0b6b3a7640000900462000e3b8a8862003758565b1062000611576011880154861062000f88575b50505050841062000611578362000e659162003758565b600583015581546001600160a01b0316803b1562000611575f6040518092632770a7eb60e21b825281838162000ea08c336004840162003cad565b03925af18015620006065762000f74575b5062000ec285600284015462003758565b600283015562000ef483337f0000000000000000000000000000000000000000000000000000000000000000620040cf565b64e8d4a5100083029083820464e8d4a510001484151715620005de575064e8d4a510009162000f288662000f40936200382b565b5060028101549060046003820154910154916200416c565b049060405193600185526020850152604084015260608301525f805160206200596283398151915260803393a36001805580f35b62000f8091506200356d565b5f8062000eb1565b62000f99828262000fa0956200416c565b936200416c565b8181111562000fdd5762000fb5828262003758565b6012870154801562000fd15780915b116200068c578062000e4e565b50600554809162000fc4565b62000fe9818362003758565b62000fb5565b8062000e0e565b50346200035b5760203660031901126200035b57602064e8d4a510006200101f60043562003862565b04604051908152f35b50346200035b57806003193601126200035b57602060405160648152f35b50346200035b576200105836620035ff565b6200106262003fbb565b818352602091600683526040842060ff600682015460301c1693620010878562003495565b60018095148062001410575b15620012645760ff600d83015460081c16151584151503620012645783156200139a5781546040516370a0823160e01b8152336004820152908290829060249082906001600160a01b03165afa9081156200138f5787916200135c575b505b801562001358578415620012e75782546040516318160ddd60e01b8152908390829060049082906001600160a01b03165afa908115620012dc578891620012a9575b50925b8315620012a557620f42409586830283810488036200128d57670de0b6b3a7640000809104978815620012a157808702968704036200128d5790829160058b95940196048654106200128957156200127757546001600160a01b03165b6001600160a01b0316803b156200127357604051632770a7eb60e21b81529183918391829084908290620011cd90336004840162003cad565b03925af1801562001268576200124c575b5050816200120f857fa18626381edd3d7a115c4a09f678bb79665034a541affcdba9fe65a1d3d107ee945462003758565b90556200123e84337f0000000000000000000000000000000000000000000000000000000000000000620040cf565b6040519384523393a3805580f35b62001257906200356d565b6200126457855f620011de565b8580fd5b6040513d84823e3d90fd5b8280fd5b8701546001600160a01b031662001194565b8380fd5b634e487b7160e01b8a52601160045260248afd5b8a80fd5b8780fd5b90508281813d8311620012d4575b620012c3818362003581565b810103126200061157515f62001134565b503d620012b7565b6040513d8a823e3d90fd5b828601546040516318160ddd60e01b8152908390829060049082906001600160a01b03165afa908115620012dc57889162001325575b509262001137565b90508281813d831162001350575b6200133f818362003581565b810103126200061157515f6200131d565b503d62001333565b8680fd5b90508181813d831162001387575b62001376818362003581565b810103126200061157515f620010f0565b503d6200136a565b6040513d89823e3d90fd5b818501546040516370a0823160e01b8152336004820152908290829060249082906001600160a01b03165afa9081156200138f578791620013dd575b50620010f2565b90508181813d831162001408575b620013f7818362003581565b810103126200061157515f620013d6565b503d620013eb565b5060ff600d83015460101c1662001093565b50346200035b5760403660031901126200035b57620014676004356200144762003522565b908084528360205262001461600160408620015462003f7b565b6200405c565b5080f35b50346200035b57806003193601126200035b576020600454604051908152f35b50346200035b5760203660031901126200035b576200089860209160406004359182815260068552620014cb828220600f6005820154910154906200374a565b928152600d85522054906200374a565b50346200035b5760203660031901126200035b57600435808252600660205260408220600981015442106200127357600d810190815460ff8160101c16620016c357600a820154604051633fabe5a360e21b8152919060a0908390600490829060081c6001600160a01b03165afa8015620016b8578692879162001652575b506200156a610e10914262003758565b10156200126457600c83015460ff9281811315620015f5575050166003811015620015e1579160066020925f80516020620059028339815191529415925b620015b484826200384a565b805462ff000019166201000017905501805460ff60301b1916600160301b1790556040519015158152a280f35b634e487b7160e01b85526021600452602485fd5b12156200162757166003811015620015e15791600660209260015f8051602062005902833981519152951492620015a8565b166003811015620015e15791600660209260025f8051602062005902833981519152951492620015a8565b92505060a0823d60a011620016af575b816200167160a0938362003581565b810103126200126457620016858262003c98565b50610e106200156a6020840151620016a560806060870151960162003c98565b509391506200155a565b3d915062001662565b6040513d88823e3d90fd5b8480fd5b50346200035b57620016d93662003463565b6003546001600160a01b03163314801562001823575b156200127357818352600660205260ff600660408520015460301c16620017168162003495565b158062001805575b15620012735781835260066020526040832090600982015442106200128957600c82015490818111156200179c57505060ff600d82015416600381101562001788575f805160206200590283398151915291600660209215915b600d8101620015b484826200384a565b634e487b7160e01b84526021600452602484fd5b1015620017d45760ff600d82015416600381101562001788575f80516020620059028339815191529160066001602093149162001778565b60ff600d82015416600381101562001788575f80516020620059028339815191529160066002602093149162001778565b50818352600660205260ff600d60408520015460101c16156200171e565b508280528260205260408320335f5260205260ff60405f205416620016ef565b50346200035b57620018553662003463565b6200185f62003f24565b670de0b6b3a7640000811015620012735760407fa097cb7860bb806f7f7a3cd95fccc8af39e383f295fd9d920b94b4325f72495591838552600660205260128286200190808254925582519182526020820152a280f35b50346200035b5760407fe94cc56d7533ee1a5ec7280e5db78488d5f8fea136f8996be57c4088ccfcc0b2620018eb3662003463565b620018f893919362003f24565b838552600660205260118286200190808254925582519182526020820152a280f35b50346200035b5760203660031901126200035b576200193862003539565b6200194262003f24565b600380546001600160a01b039283166001600160a01b0319821681179092559091167f76adfe904c29e6ceb309dfc113379a0b12bcad7ddbc21693f55c0a233179f6e38380a380f35b50346200035b5760203660031901126200035b57620019a962003fbb565b620019b660043562003bd5565b6001805580f35b50346200035b5760203660031901126200035b5764e8d4a51000620019e460043562003862565b0490620f4240918203918211620005de57602082604051908152f35b50346200035b5760203660031901126200035b57600435815260066020526040812060018060a01b038154169160018060a01b0360018301541692600283015492600381015491600482015490600583015490600684015490600785016040519788918181549162001a72836200363f565b808652926001811690811562001bcb575060011462001b8d575b5050500362001a9c908862003581565b60088501546001600160a01b03169662001ab96009870162003687565b91600e87015493600f8801549560108901549760118a015499601201549a6040519e8f9e8f91610320978352602083015260408201526060015260808d015260a08c015261ffff811660c08c01528060101c61ffff1660e08c01528060201c61ffff166101008c01528060301c60ff1662001b349062003495565b60301c60ff166101208b0152806101408b0152890162001b54916200370a565b96610160890152610180880162001b6b91620034b4565b6102808701526102a08601526102c08501526102e08401526103008301520390f35b9080935052602082205b81831062001baf57505081016020015f808062001a8c565b8060209294838560019454920101520191019091899262001b97565b925050506020925060ff191682840152151560051b8201015f808062001a8c565b50346200035b57806003193601126200035b5760206040515f80516020620059228339815191528152f35b50346200035b57806003193601126200035b57602060405164e8d4a510008152f35b50346200035b5760203660031901126200035b57600435815260066020526040812080546001600160a01b03161562001cb757600360028201549101548082115f1462001cae5750905b620f424091828102928184041490151715620005de57602082670de0b6b3a764000060405191048152f35b90509062001c83565b5080fd5b62003620565b50346200035b5762001cd33662003463565b62001cdd62003f24565b8183526006602052604083208115620012895781600560209262001d457f87c1020d7fa6ffbfc6d522193e133c78b2ca4d3cfd5bb6f70cdd41b1abea59d29530337f000000000000000000000000000000000000000000000000000000000000000062004111565b0162001d538282546200374a565b9055604051908152a280f35b50346200035b57806003193601126200035b57602090604051908152f35b50346200035b5760403660031901126200035b5760206200089862001da162003522565b60043562003b6f565b50346200035b5760203660031901126200035b5760406020916004358152600983522054604051908152f35b50346200035b5762001de83662003463565b9062001df362003fbb565b8083526020600681526040842060ff600682015460301c1662001e168162003495565b620016c357629896808410620016c35762001e548430337f000000000000000000000000000000000000000000000000000000000000000062004111565b6005810162001e658582546200374a565b905582855260098252670de0b6b3a764000062001e8760408720548662003817565b04838652600a835260408620335f52835262001ea960405f209182546200374a565b90558285526008825260408520335f52825260405f2062001ecc8582546200374a565b905562001ef0600e820162001ee38682546200374a565b8091556004549062003817565b64e8d4a510009081810291818304149015171562001f4b5790600467099e8db03256ce5d7fc733c2813826d31c105dbff518b08258e9e7aeb3eb1c7c7f642d77696faf501d9493049101556040519384523393a36001805580f35b634e487b7160e01b86526011600452602486fd5b50346200035b5760203660031901126200035b5762001f7d62003fbb565b620019b660043562003aae565b50346200035b5760403660031901126200035b57604062001faa62003522565b91600435815280602052209060018060a01b03165f52602052602060ff60405f2054166040519015158152f35b50346200035b5760403660031901126200035b5760206200089862001ffb62003522565b60043562003a48565b50346200035b5760203660031901126200035b576200202262003f24565b6200202f6004356200389f565b80f35b50346200035b5760203660031901126200035b5760043580825260066020526040822080546001600160a01b031615620012735760a0925060028101549160038201549164e8d4a5100062002091600460058401549301549362003862565b04926040519485526020850152604084015260608301526080820152f35b50346200035b5760203660031901126200035b57600435620020d062003f24565b801515806200211a575b1562001cb75760407f9d4563746e5741552c9d324b2d220934e243249d63e8688784a3ea1ce66b78ce91600554908060055582519182526020820152a180f35b50670de0b6b3a76400008110620020da565b50346200035b5760203660031901126200035b576004356200214d62003f24565b801562001cb75769d3c21bcecceda100000081101562001cb75760407f2cd5b52cf2c64c8e9b7db86c0b04159e1dae76124e6ab74ed5991e72335e7be691600454908060045582519182526020820152a180f35b50346200035b57806003193601126200035b576003546040516001600160a01b039091168152602090f35b50346200035b5760403660031901126200035b576040620021ec62003522565b9160043581526008602052209060018060a01b03165f52602052602060405f2054604051908152f35b50346200035b5760203660031901126200035b5760206200089860043562003862565b50346200035b5760403660031901126200035b5760406200225862003522565b916004358152600c602052209060018060a01b03165f52602052602060405f2054604051908152f35b50346200035b57806003193601126200035b576002546040516001600160a01b039091168152602090f35b50346200035b57620022be36620035ff565b620022c862003f24565b818352600660205260ff600660408520015460301c16620022e98162003495565b158062002334575b1562001273578183526006602052604083206009810154421062001289575f805160206200590283398151915291600682600d60209401620015b484826200384a565b50818352600660205260ff600d60408520015460101c1615620022f1565b5034620006115761016036600319011262000611576004356001600160401b038111620006115762002389903690600401620035a5565b6024356001600160401b0381116200061157620023ab903690600401620035a5565b6044356001600160401b0381116200061157620023cd903690600401620035a5565b916064356001600160401b0381116200061157620023f0903690600401620035a5565b916084356001600160401b038111620006115762002413903690600401620035a5565b9260e435916001600160a01b0383168303620006115760036101443510156200061157335f9081527f2412b2af58bf3b93d578a423d333d33fb94fb5093f9cda1aed2eaafb3215f929602052604090205460ff161562002ccf576298968060a4351062000611574260c43511156200061157600754955f1987146200061557600187016007556040519161116d83016001600160401b0381118482101762000822578392620024cd9261116d620047958639309262003766565b03905ff093841562000606576040519161116d83016001600160401b03811184821017620008225783926200250d9261116d620047958639309262003766565b03905ff0908115620006065760405163d539139360e01b81526020816004816001600160a01b0389165afa90811562000606575f9162002c97575b506001600160a01b0385163b1562000611575f6200257d9160405180938192632f2ff15d60e01b8352309060048401620037a4565b0381836001600160a01b038a165af18015620006065762002c81575b5060405163282c51f360e01b815286906020816004816001600160a01b038a165afa9081156200126857829162002c46575b506001600160a01b0386163b1562001cb75781620026009160405180938192632f2ff15d60e01b8352309060048401620037a4565b0381836001600160a01b038b165af18015620012685762002c2e575b5060405163d539139360e01b81526020816004816001600160a01b0388165afa9081156200126857829162002bf3575b506001600160a01b0384163b1562001cb75781620026819160405180938192632f2ff15d60e01b8352309060048401620037a4565b0381836001600160a01b0389165af18015620012685762002bdb575b5060405163282c51f360e01b81526020816004816001600160a01b0388165afa9081156200126857829162002ba0575b506001600160a01b0384163b1562001cb75781620027029160405180938192632f2ff15d60e01b8352309060048401620037a4565b0381836001600160a01b0389165af18015620012685762002b88575b50506001858101875260066020526040872080546001600160a01b03199081166001600160a01b038881169190911783559282018054821693861693909317909255600881018054909216331790915583519091906001600160401b03811162002b74576200279160078401546200363f565b601f811162002b2b575b50806020601f821160011462002abf57899162002ab3575b508160011b915f199060031b1c19161760078301555b60068201805466ffffffffffffff19166464000000641790556200281260a43530337f000000000000000000000000000000000000000000000000000000000000000062004111565b60a43560058301556200282a60045460a43562003817565b64e8d4a510009081810291818304149015171562002a9f5767099e8db03256ce5d900460048301556001600160a01b03811662002a965786905b6200286f8262003495565b6001820362002a8e5761010435905b604051916200288d8362003550565b60c43583526020830193620028a28162003495565b8452604083019160018060a01b0316825260608301908152608083019061012435825260a0840194620028d961014435876200367a565b60c08501938c855260e08601958d8752516009890155600a8801915190620029018262003495565b6200290c8262003495565b60ff835491610100600160a81b03905160081b1692169060018060a81b0319161717905551600b86015551600c850155600d84019251600381101562002a7a579362002a55959360209a93620029976012947f8a671e50058538a6b89d0f6600aa6e9ddc0a3e80e63c1689a1514f5f3113d9269a9860ff80198654169116178455511515836200384a565b51151562ff000082549160101b169062ff0000191617905560018901835260088a5260408320335f528a5260a43560405f205560018901835260098a52670de0b6b3a7640000620029ef604085205460a43562003817565b0460018a018452600a8b5260408420335f528b5260405f205560a435600e82015582600f8201558260108201556402540be400601182015501556040519460018060a01b0316855260018060a01b03168685015260a0604085015260a08401906200370a565b9160a435606082015260c43560808201528060018501930390a2600160405191018152f35b634e487b7160e01b8a52602160045260248afd5b87906200287e565b60019062002864565b634e487b7160e01b88526011600452602488fd5b90508501515f620027b3565b600785018a5260208a209150601f1983168a5b81811062002b125750908360019493921062002af9575b5050811b016007830155620027c9565b8701515f1960f88460031b161c191690555f8062002ae9565b9192602060018192868c01518155019401920162002ad2565b60078401895260208920601f830160051c81016020841062002b6c575b601f830160051c8201811062002b605750506200279b565b8a815560010162002b48565b508062002b48565b634e487b7160e01b88526041600452602488fd5b62002b93906200356d565b6200126457855f6200271e565b9150506020813d60201162002bd2575b8162002bbf6020938362003581565b8101031262000611578690515f620026cd565b3d915062002bb0565b62002be6906200356d565b6200126457855f6200269d565b9150506020813d60201162002c25575b8162002c126020938362003581565b8101031262000611578690515f6200264c565b3d915062002c03565b62002c39906200356d565b6200126457855f6200261c565b9150506020813d60201162002c78575b8162002c656020938362003581565b8101031262000611578690515f620025cb565b3d915062002c56565b62002c8e9196506200356d565b5f945f62002599565b90506020813d60201162002cc6575b8162002cb56020938362003581565b810103126200061157515f62002548565b3d915062002ca6565b60405163e2517d3f60e01b81523360048201525f80516020620059228339815191526024820152604490fd5b346200061157602036600319011262000611576004355f52600d602052602060405f2054604051908152f35b3462000611575f36600319011262000611576020604051610e108152f35b3462000611575f36600319011262000611576020604051670de0b6b3a76400008152f35b3462000611576060366003190112620006115760043562002d8962003522565b906044359162002d9862003f24565b6001600160a01b038116928315620006115780156200061157825f52600660205260405f20600d602052600f60405f205491019283549362002ddb83866200374a565b8411620006115784841162002edb5783925b5f9480851062002eb5575b50509162002e706020949262002e76947f5d18249fc7046e6dc0e5af98787e85bf19720c827aedbf0a53e75dfc8bff4a2b97848062002e9f575b5050508362002e7f575b62002e4884846200374a565b907f0000000000000000000000000000000000000000000000000000000000000000620040cf565b6200374a565b604051908152a3005b875f52600d865260405f2062002e9785825462003758565b905562002e3c565b62002eaa9162003758565b905589808462002e32565b62002ec7919395509380929462003758565b918211620006115791878094929462002df8565b849262002ded565b3462000611575f3660031901126200061157602060405164174876e8008152f35b3462000611575f36600319011262000611576040517f00000000000000000000000000000000000000000000000000000000000000006001600160a01b03168152602090f35b3462000611575f36600319011262000611576020604051620f42408152f35b3462000611576040366003190112620006115762002f8662003522565b336001600160a01b0382160362002fa75762002fa5906004356200405c565b005b60405163334bd91960e11b8152600490fd5b3462000611576040366003190112620006115762002fa560043562002fdd62003522565b90805f525f60205262002ff7600160405f20015462003f7b565b62003fdf565b3462000611575f36600319011262000611576020600554604051908152f35b346200061157604036600319011262000611576004357fb121f436d88cf589eb7e86342453d5c7b9d641be12fe9062b8798906287f765260406024356200306262003f24565b835f526006602052600b825f200190808254925582519182526020820152a2005b346200061157602036600319011262000611576004355f525f6020526020600160405f200154604051908152f35b346200061157602036600319011262000611575f60e0604051620030d58162003550565b8281528260208201528260408201528260608201528260808201528260a08201528260c082015201526004355f5260066020526101006200311c600960405f200162003687565b6200312b6040518092620034b4565bf35b3462000611576200313e366200347a565b6200314b92919262003fbb565b815f52600660205260405f209260ff600685015460301c166200316e8162003495565b6200061157606481111562000611575f93600381018054938484116200061157826002620031cc940190815496600482019384549088620031d38b62000ddf85620031bb8189856200432c565b9264e8d4a510009d8e968a62003758565b906200432c565b04996005850193845493848d116200061157620031f18c8362003758565b9182841115620033a257835b620f4240908181029181830414901517156200061557670de0b6b3a764000090046200322a8f8862003758565b1062000611576011880154861062003342575b505050508910620006115788620032549162003758565b9055600101546001600160a01b0316803b1562000611575f6040518092632770a7eb60e21b82528183816200328e8c336004840162003cad565b03925af1801562000606576200332c575b50620032ad85845462003758565b8355620032dc86337f0000000000000000000000000000000000000000000000000000000000000000620040cf565b83860286810485148715171562000bbf579285949262000b8d92620033165f8051602062005962833981519152999862003323976200382b565b505491549054916200416c565b0390a360018055005b620033399198506200356d565b5f96886200329f565b62000f99826200335394866200416c565b81811115620033905762003368828262003758565b60128701548015620033845780915b116200068c57806200323d565b50600554809162003377565b6200339c818362003758565b62003368565b82620031fd565b34620006115760407f43d0ad12201d70a32f7759883d1e3d86f713cb93f57f44dbe3a3ecbbe3aba476620033dd3662003463565b620033ea93919362003f24565b835f5260066020526010825f200190808254925582519182526020820152a2005b346200061157602036600319011262000611576004359063ffffffff60e01b82168092036200061157602091637965db0b60e01b811490811562003451575b5015158152f35b6301ffc9a760e01b149050836200344a565b604090600319011262000611576004359060243590565b60609060031901126200061157600435906024359060443590565b60021115620034a057565b634e487b7160e01b5f52602160045260245ffd5b805182526020810151620034c88162003495565b60208301526040818101516001600160a01b031690830152606080820151908301526080808201519083015260a08101516003811015620034a05760e091829160a085015260c0810151151560c085015201511515910152565b602435906001600160a01b03821682036200061157565b600435906001600160a01b03821682036200061157565b61010081019081106001600160401b038211176200082257604052565b6001600160401b0381116200082257604052565b601f909101601f19168101906001600160401b038211908210176200082257604052565b81601f8201121562000611578035906001600160401b038211620008225760405192620035dd601f8401601f19166020018562003581565b828452602083830101116200061157815f926020809301838601378301015290565b60409060031901126200061157600435906024358015158103620006115790565b3462000611575f36600319011262000611576020604051629896808152f35b90600182811c921680156200366f575b60208310146200365b57565b634e487b7160e01b5f52602260045260245ffd5b91607f16916200364f565b6003821015620034a05752565b90604051620036968162003550565b60e060ff60048395805485526001810154838116620036b58162003495565b602087015260081c6001600160a01b0316604086015260028101546060860152600381015460808601520154620036f282821660a086016200367a565b818160081c16151560c085015260101c161515910152565b91908251928382525f5b84811062003735575050825f602080949584010152601f8019910116010190565b60208183018101518483018201520162003714565b919082018092116200061557565b919082039182116200061557565b916200379490620037856040939695966060865260608601906200370a565b9084820360208601526200370a565b6001600160a01b03909416910152565b9081526001600160a01b03909116602082015260400190565b90670de0b6b3a7640000918281029281840414901517156200061557565b906714057b7ef767814f918281029281840414901517156200061557565b9067099e8db03256ce5d918281029281840414901517156200061557565b818102929181159184041417156200061557565b811562003836570490565b634e487b7160e01b5f52601260045260245ffd5b9061ff00825491151560081b169061ff001916179055565b5f90815260066020526040902080546001600160a01b03161562000611578060026200389c9201549060046003820154910154916200416c565b90565b805f526020600681526040805f20600160ff600683015460301c16620038c58162003495565b148062003a36575b156200061157600d81015460081c60ff161562003a1d57805460049084906001600160a01b03165b84516318160ddd60e01b815292839182906001600160a01b03165afa90811562003a13575f91620039e0575b50620006115760058101928354918215620039bd57600e01805480156200061157670de0b6b3a7640000840295670de0b6b3a763ffff198588040162000615576200397d5f925f8051602062005982833981519152986200382b565b888352600b8552620039948784209182546200374a565b9055878252600d8452858220620039ad8682546200374a565b90555554908351928352820152a2565b600e015483515f8152918201525f805160206200598283398151915293509050a2565b90508381813d831162003a0b575b620039fa818362003581565b810103126200061157515f62003921565b503d620039ee565b83513d5f823e3d90fd5b600181015460049084906001600160a01b0316620038f5565b5060ff600d82015460101c16620038cd565b6200389c91815f52600860205260405f209060018060a01b031690815f52602052670de0b6b3a764000062003a8f60405f2054845f52600960205260405f20549062003817565b04915f52600a60205260405f20905f5260205260405f20549062003758565b805f52600660205260405f209062003ac7338262003a48565b91821562003b6a57600f01805483116200061157815f52600a60205260405f20335f5260205260405f2062003afe8482546200374a565b905562003b0d83825462003758565b905562003b3c82337f0000000000000000000000000000000000000000000000000000000000000000620040cf565b6040519182527f564d03ca8b35e10bc8a440f1b3f546629000b00f689200a14ca91a979d2f8d7560203393a3565b505050565b6200389c91815f52600860205260405f209060018060a01b031690815f52602052670de0b6b3a764000062003bb660405f2054845f52600b60205260405f20549062003817565b04915f52600c60205260405f20905f5260205260405f20549062003758565b62003be1338262003b6f565b90811562003c9457805f52600d60205260405f205480831162000611578262003c2c91600c60205260405f20335f5260205260405f2062003c248382546200374a565b905562003758565b815f52600d60205260405f205562003c6682337f0000000000000000000000000000000000000000000000000000000000000000620040cf565b6040519182527ff5cc3364915e9aae081452b106ef94234ee9c414117208fe7e34211c4e8941c260203393a3565b5050565b51906001600160501b03821682036200061157565b6001600160a01b039091168152602081019190915260400190565b5f52600660205260405f209060018060a01b038254161562000611576005820154906011916011840154111562003f0a576012830154801562003eff57905b600284015491600385015491600493600487015462003d288186846200416c565b9260068901549561ffff9788881698808960101c169860201c169760105f9c01548015155f1462003ee7579a999a989796959493929190985b985f9b5b60288d1062003d7e575050505050505050505050505090565b909192939495969798999a9b9c62003d978c826200374a565b60011c9062003dda6127106200041b8e818362003db5898962003817565b049362003dd18162003dc88c8b62003817565b04938962003817565b04938762003758565b801562003eb757871562003ee057895b881562003ed85787905b64e8d4a510008084029384040362003ec557918a9162003e14936200424a565b801562003eb75762003e49898d928c818c5f1462003eaf5762003e37916200374a565b905b8b1562003e9c575089906200416c565b8b8181111562003e8b579062003e5f9162003758565b1162003e7e57506001909d5b019b9a9998979695949392919062003d65565b9d9b506001909b62003e6b565b62003e969162003758565b62003e5f565b62003ea8908b6200374a565b906200416c565b509062003e39565b509d9b506001909b62003e6b565b508f87634e487b7160e01b5f525260245ffd5b8a9062003df4565b8662003dea565b50989998979695949392919064174876e80062003d61565b506005549062003d07565b505060100154801562003f1a5790565b5064174876e80090565b335f9081527fad3228b676f7d3cd4284a5443f17f1962b36e491b30a40b2405849e597ba5fb5602052604090205460ff161562003f5d57565b60405163e2517d3f60e01b81523360048201525f6024820152604490fd5b805f525f60205260405f20335f5260205260ff60405f2054161562003f9d5750565b6044906040519063e2517d3f60e01b82523360048301526024820152fd5b60026001541462003fcd576002600155565b604051633ee5aeb560e01b8152600490fd5b90815f525f60205260405f209060018060a01b031690815f5260205260ff60405f205416155f146200405657815f525f60205260405f20815f5260205260405f20600160ff1982541617905533917f2f8788117e7eff1d82e926ec794901d17c78024a50270940304540a733656f0d5f80a4600190565b50505f90565b90815f525f60205260405f209060018060a01b031690815f5260205260ff60405f2054165f146200405657815f525f60205260405f20815f5260205260405f2060ff19815416905533917ff6391f5c32d9c69d2a47ea670b442974b53935d1edc7fd64eb21e047a839171b5f80a4600190565b620041096200410f9392620040fa60405194859263a9059cbb60e01b60208501526024840162003cad565b03601f19810184528362003581565b6200465d565b565b6040516323b872dd60e01b60208201526001600160a01b03928316602482015292909116604483015260648083019390935291815260a08101918183106001600160401b0384111762000822576200410f926040526200465d565b918183146200423b57620041ba620041b483620041ae94861195865f146200422957906200419a9162003758565b925b670de0b6b3a7640000948594620037bd565b6200382b565b620037db565b04680a688906bd8b00000081116200421957620041d790620046e2565b9115620041f45781810180911162000615576200389c91620046bb565b9081018091116200061557801562003836576a0c097ce7bc90715b34b9f160241b0490565b509015620042245790565b505f90565b620042349162003758565b926200419c565b5050506706f05b59d3b2000090565b620042578483836200432c565b925f93855b8262004274836200041b8a8962000dd9878b6200374a565b1015620043215760011b620f42408088029088820414881517156200061557808211620042a257506200425c565b905095939291905b5f945b60288610620042ce5750505050505090620042c8916200374a565b60011c90565b909192939495620042e088826200374a565b60011c9084620042fc856200041b868b62000dd9888d6200374a565b11620043145750600190965b019493929190620042ad565b9697506001909762004308565b9593929190620042aa565b620043649082811115620046565780925b808210156200464e57505b6200436a620041b485670de0b6b3a76400009485948762003758565b620046bb565b04680a688906bd8b000000811162004647576200438790620046e2565b801562003836576a0c097ce7bc90715b34b9f160241b0481018082116200061557801562000611575f90806503782dace9d960921b8110156200462f575b506503782dace9d960521b81101562004610575b6503782dace9d960321b811015620045f1575b6503782dace9d960221b811015620045d3575b680de0b6b3a764000000811015620045b5575b67de0b6b3a7640000081101562004597575b673782dace9d90000081101562004579575b671bc16d674ec8000081101562004563575b670de0b6b3a763ffff19810190808211620006155783810180911162000615576200447391620046bb565b8262004480828062003817565b046003846200448f83620037bd565b040484019182851162000615576200450d620044df600987620044df816200450688620044ff83620044ef83620044e8839f620045149f8580620044d68360059462003817565b049e8f620037bd565b0404906200374a565b9a62003817565b0497600785620044df8b620037bd565b9662003817565b04620037bd565b9062003817565b049367280af6fdeecf02a094858102958187041490151715620006155782620045536200454d6200455b94836200389c9904906200374a565b620037f9565b049062003817565b04906200374a565b9082810180911162000615579060011c62004448565b60021c90671bc16d674ec80000810180911162000615579062004436565b60041c90673782dace9d900000810180911162000615579062004424565b60081c90676f05b59d3b200000810180911162000615579062004412565b60101c9067de0b6b3a764000008101809111620006155790620043ff565b60201c906801bc16d674ec8000008101809111620006155790620043ec565b60401c906803782dace9d90000008101809111620006155790620043d9565b91505060801c6806f05b59d3b2000000905f620043c5565b5050905090565b905062004348565b826200433d565b905f602091828151910182855af11562000606575f513d620046b157506001600160a01b0381163b155b6200468f5750565b604051635274afe760e01b81526001600160a01b039091166004820152602490fd5b6001141562004687565b90670de0b6b3a76400009182810292818404149015171562000615576200389c916200382b565b680a688906bd8b00000081116200061157670de0b6b3a764000080816200470b818506620037f9565b049060019182916001935b62004738575b505050506001670de0b6b3a76400006200389c93041b62003817565b60ff949192939490818616906014821162004789576200477f6200477786959493670de0b6b3a7640000620047708a998a9662003817565b046200382b565b80946200374a565b9601169362004716565b50508194506200471c56fe60806040523462000344576200116d803803806200001d8162000348565b9283398101606082820312620003445781516001600160401b0391908281116200034457816200004f9185016200036e565b916020918285015182811162000344576040916200006f9187016200036e565b940151926001600160a01b038416840362000344578051908282116200024f576003918254906001928383811c9316801562000339575b8784101462000325578190601f93848111620002d2575b5087908483116001146200026f575f9262000263575b50505f1982861b1c191690831b1783555b86519384116200024f5760049485548381811c9116801562000244575b828210146200023157828111620001e9575b50809185116001146200017d5750839291839162000160985f9562000171575b50501b925f19911b1c19161790555b6200014d81620003de565b5062000159816200044e565b50620004ef565b50604051610ba290816200058b8239f35b015193505f8062000133565b91939290601f19841697865f52835f20935f905b8a8210620001d157505084620001609910620001b7575b50505050811b01905562000142565b01519060f8845f19921b161c191690555f808080620001a8565b80888597829496860151815501960193019062000191565b865f52815f208380880160051c82019284891062000227575b0160051c019084905b8281106200021b57505062000113565b5f81550184906200020b565b9250819262000202565b602287634e487b7160e01b5f525260245ffd5b90607f169062000101565b634e487b7160e01b5f52604160045260245ffd5b015190505f80620000d3565b90859350601f19831691875f52895f20925f5b8b828210620002bb5750508411620002a3575b505050811b018355620000e4565b01515f1983881b60f8161c191690555f808062000295565b838501518655899790950194938401930162000282565b909150855f52875f208480850160051c8201928a86106200031b575b918791869594930160051c01915b8281106200030c575050620000bd565b5f8155859450879101620002fc565b92508192620002ee565b634e487b7160e01b5f52602260045260245ffd5b92607f1692620000a6565b5f80fd5b6040519190601f01601f191682016001600160401b038111838210176200024f57604052565b919080601f84011215620003445782516001600160401b0381116200024f57602090620003a4601f8201601f1916830162000348565b9281845282828701011162000344575f5b818110620003ca5750825f9394955001015290565b8581018301518482018401528201620003b5565b6001600160a01b03165f8181525f805160206200114d833981519152602052604090205460ff1662000449575f8181525f805160206200114d83398151915260205260408120805460ff191660011790553391905f805160206200112d8339815191528180a4600190565b505f90565b6001600160a01b03165f8181527f15a28d26fa1bf736cf7edc9922607171ccb09c3c73b808e7772a3013e068a52260205260409020547f9f2df0fed2c77648de5860a4cc508cd0818c85b8b8a1ab4ceeef8d981c8956a6919060ff16620004e957815f52600560205260405f20815f5260205260405f20600160ff1982541617905533915f805160206200112d8339815191525f80a4600190565b50505f90565b6001600160a01b03165f8181527f847f481f687befb06ed3511f1a8dcef57e83007c0147ae5047583d705617093760205260409020547f3c11d16cbaffd01df69ce1c404f6340ee057498f5f00246190ea54220576a848919060ff16620004e957815f52600560205260405f20815f5260205260405f20600160ff1982541617905533915f805160206200112d8339815191525f80a460019056fe6080604090808252600480361015610015575f80fd5b5f3560e01c91826301ffc9a71461087a5750816306fdde03146107bd578163095ea7b31461071557816318160ddd146106f757816323b872dd14610613578163248a9ca3146105e9578163282c51f3146105c25781632f2ff15d1461059a578163313ce5671461057f57816336568abe1461053b57816340c10f191461045f57816370a082311461042957816391d14854146103e557816395d89b41146102e35781639dc29fac146101f5578163a217fddf146101db578163a9059cbb146101ab578163d539139314610184578163d547741f14610148575063dd62ed3e146100fc575f80fd5b34610144578060031936011261014457602090610117610913565b61011f610929565b9060018060a01b038091165f5260018452825f2091165f528252805f20549051908152f35b5f80fd5b8234610144578060031936011261014457610182913561017d600161016b610929565b93835f5260056020525f200154610a0f565b610acd565b005b8234610144575f36600319011261014457602090515f80516020610b628339815191528152f35b82346101445780600319360112610144576020906101d46101ca610913565b602435903361095d565b5160018152f35b8234610144575f36600319011261014457602090515f8152f35b823461014457806003193601126101445761020e610913565b90602435925f80516020610b42833981519152805f526005602052825f20335f5260205260ff835f205416156102c857506001600160a01b0383169283156102b257835f525f602052825f205491858310610293575f855f80516020610b828339815191526020898881898688528785520381872055816002540360025551908152a3005b6102ae8684865194859463391434e360e21b8652850161093f565b0390fd5b505f6024925191634b637e8f60e11b8352820152fd5b604492519163e2517d3f60e01b835233908301526024820152fd5b8234610144575f366003190112610144578051905f835460018160011c90600183169283156103db575b60209384841081146103c8578388529081156103ac5750600114610374575b505050829003601f01601f19168201926001600160401b03841183851017610361575082918261035d9252826108cc565b0390f35b604190634e487b7160e01b5f525260245ffd5b919250855f52825f2091835f935b838510610398575050505083010184808061032c565b805488860183015293019284908201610382565b60ff1916878501525050151560051b840101905084808061032c565b602289634e487b7160e01b5f525260245ffd5b91607f169161030d565b8234610144578060031936011261014457602091610401610929565b90355f5260058352815f209060018060a01b03165f52825260ff815f20541690519015158152f35b8234610144576020366003190112610144576020906001600160a01b0361044e610913565b165f525f8252805f20549051908152f35b8234610144578060031936011261014457610478610913565b90602435915f80516020610b62833981519152805f526005602052825f20335f5260205260ff835f2054161561051d57506001600160a01b031692831561050857600254908382018092116104f557505f925f80516020610b828339815191529260209260025585855284835280852082815401905551908152a3005b601190634e487b7160e01b5f525260245ffd5b5f602492519163ec442f0560e01b8352820152fd5b825163e2517d3f60e01b815233818701526024810191909152604490fd5b8234610144578060031936011261014457610554610929565b90336001600160a01b0383160361057057506101829135610acd565b5163334bd91960e11b81529050fd5b8234610144575f366003190112610144576020905160128152f35b823461014457806003193601126101445761018291356105bd600161016b610929565b610a4f565b8234610144575f36600319011261014457602090515f80516020610b428339815191528152f35b823461014457602036600319011261014457602091355f52600582526001815f2001549051908152f35b9050346101445760603660031901126101445761062e610913565b610636610929565b906044359260018060a01b038216805f526001602052855f20335f52602052855f2054915f198310610671575b6020876101d488888861095d565b8583106106d95781156106c35733156106ad57505f908152600160209081528682203383528152908690209185900390915582906101d4610663565b6024905f885191634a1406b160e11b8352820152fd5b6024905f88519163e602df0560e01b8352820152fd5b90506102ae858751938493637dc7a0d960e11b85523390850161093f565b8234610144575f366003190112610144576020906002549051908152f35b823461014457806003193601126101445761072e610913565b6024359033156107a7576001600160a01b03169081156107915760209350335f5260018452825f20825f52845280835f205582519081527f8c5be1e5ebec7d5bd14f71427d1e84f3dd0314c0f7b2291e5b200ac8c7c3b925843392a35160018152f35b8251634a1406b160e11b81525f81860152602490fd5b825163e602df0560e01b81525f81860152602490fd5b8234610144575f366003190112610144578051905f60035460018160011c9060018316928315610870575b60209384841081146103c8578388529081156103ac575060011461083757505050829003601f01601f19168201926001600160401b03841183851017610361575082918261035d9252826108cc565b91925060035f52825f2091835f935b83851061085c575050505083010184808061032c565b805488860183015293019284908201610846565b91607f16916107e8565b903461014457602036600319011261014457359063ffffffff60e01b821680920361014457602091637965db0b60e01b81149081156108bb575b5015158152f35b6301ffc9a760e01b149050836108b4565b602080825282518183018190529093925f5b8281106108ff57505060409293505f838284010152601f8019910116010190565b8181018601518482016040015285016108de565b600435906001600160a01b038216820361014457565b602435906001600160a01b038216820361014457565b604091949392606082019560018060a01b0316825260208201520152565b916001600160a01b038084169283156109f757169283156109df57825f525f60205260405f2054908282106109c25750815f80516020610b8283398151915292602092855f525f84520360405f2055845f5260405f20818154019055604051908152a3565b6102ae8360405193849363391434e360e21b85526004850161093f565b60405163ec442f0560e01b81525f6004820152602490fd5b604051634b637e8f60e11b81525f6004820152602490fd5b805f52600560205260405f20335f5260205260ff60405f20541615610a315750565b6044906040519063e2517d3f60e01b82523360048301526024820152fd5b90815f52600560205260405f209060018060a01b031690815f5260205260ff60405f205416155f14610ac757815f52600560205260405f20815f5260205260405f20600160ff1982541617905533917f2f8788117e7eff1d82e926ec794901d17c78024a50270940304540a733656f0d5f80a4600190565b50505f90565b90815f52600560205260405f209060018060a01b031690815f5260205260ff60405f2054165f14610ac757815f52600560205260405f20815f5260205260405f2060ff19815416905533917ff6391f5c32d9c69d2a47ea670b442974b53935d1edc7fd64eb21e047a839171b5f80a460019056fe3c11d16cbaffd01df69ce1c404f6340ee057498f5f00246190ea54220576a8489f2df0fed2c77648de5860a4cc508cd0818c85b8b8a1ab4ceeef8d981c8956a6ddf252ad1be2c89b69c2b068fc378daa952ba7f163c4a11628f55a4df523b3ef2f8788117e7eff1d82e926ec794901d17c78024a50270940304540a733656f0d05b8ccbb9d4d8fb16ea74ce3c29a41f1b461fbdaff4714a0d9a8eb05499746bc4927fe38919783250023d27e65a3e56b6b5c3e49364e51674a41ef08d62460d9d3065a24ad9e7725d223007135762d2902038999e3e5829146654498a58d9795a625c3e5e55ecfc87bc129708d56174a230213ded2a553ef566988855bdb1a051d161b920c72af3bceacd767e1ddf575296be054b91f3f47954d4fa62e0ea7922297d9f079884cc9504d1f17036aa3396dc71f1110c4b8584d52bb4948fa200d2f8788117e7eff1d82e926ec794901d17c78024a50270940304540a733656f0dad3228b676f7d3cd4284a5443f17f1962b36e491b30a40b2405849e597ba5fb5","linkReferences":{}},"methodIdentifiers":{"DEFAULT_ADMIN_ROLE()":"a217fddf","DUST_THRESHOLD()":"dd7dc9a9","MARKET_CREATOR_ROLE()":"ae42820c","MAX_USDC_PER_TRADE()":"43abd9ea","MIN_LIQUIDITY_ADD()":"7b4e7470","MIN_MARKET_SEED()":"a6f57be3","ORACLE_STALENESS_THRESHOLD()":"4dbe8697","PRICE_DECIMALS_E18()":"4ce7ee34","PRICE_DECIMALS_E6()":"390c51f1","USDC_TO_E18()":"aa93f462","accFeePerUSDCE18(uint256)":"9da4f13d","accResidualPerUSDCE18(uint256)":"e72012a7","addLiquidity(uint256,uint256)":"9cd441da","buyNo(uint256,uint256,uint256)":"ea175894","buyYes(uint256,uint256,uint256)":"fb27260b","chainlinkResolver()":"7f8a3f8c","checkUpkeep(uint256)":"f7d334ba","claimLpFees(uint256)":"99406c9b","claimLpResidual(uint256)":"b7a8d60e","createMarket(string,string,string,string,string,uint256,uint256,address,bytes32,uint256,uint8)":"56c8d23d","finalizeResidual(uint256)":"8a97700e","getMarketResolution(uint256)":"232e45d7","getMarketState(uint256)":"88b1f1c3","getRoleAdmin(bytes32)":"248a9ca3","grantRole(bytes32,address)":"2f2ff15d","hasRole(bytes32,address)":"91d14854","invariantUsdc(uint256)":"cde0d59d","liabilityE6(uint256)":"a7918a65","liquidityMultiplierE18()":"d105e1c6","lpFeeDebt(uint256,address)":"ffe2a945","lpResidualDebt(uint256,address)":"6aa083b9","lpResidualUSDC(uint256)":"4f6ac037","lpShares(uint256,address)":"6bcbb8a5","marketCount()":"ec979082","markets(uint256)":"b1283e77","maxInstantJumpE18()":"2ed13b78","maxUsdcBeforeJump(uint256,bool)":"f6efac46","pendingLpFees(uint256,address)":"8e28d9e0","pendingLpResidual(uint256,address)":"9f29c18f","redeem(uint256,bool)":"d65a06b0","renounceRole(bytes32,address)":"36568abe","resolveMarket(uint256,bool)":"57bde446","resolveMarketWithPrice(uint256,uint256)":"cab7cde9","resolveWithFeed(uint256)":"cd233512","revokeRole(bytes32,address)":"d547741f","sellNo(uint256,uint256,uint256)":"16fe6929","sellYes(uint256,uint256,uint256)":"dffad4e2","setChainlinkResolver(address)":"bad260f5","setLiquidityMultiplier(uint256)":"866fdc43","setMarketMaxInstantJump(uint256,uint256)":"c1195128","setMaxInstantJump(uint256)":"878cb211","setMaxUsdcPerTrade(uint256,uint256)":"0e325fb5","setPriceBandThreshold(uint256,uint256)":"bd17dab4","setPriceFeedId(uint256,bytes32)":"26cace84","setTreasury(address)":"f0f44260","spotPriceNoE6(uint256)":"b4fb88b7","spotPriceYesE18(uint256)":"6ad6c254","spotPriceYesE6(uint256)":"dfe0662a","supportsInterface(bytes4)":"01ffc9a7","sweepDust(uint256,address,uint256)":"4cded88d","topUpVault(uint256,uint256)":"a6ef3bd1","treasury()":"61d027b3","usdc()":"3e413bee"},"id":44}